:02000002D0002C
:1040000000400D006CB80D00000006000D00050119
:0840100004017C050000000022
:0440180060AA0D008D
:1040200009480A49884208B505D0094A824202D0A7
:10403000121A05F029F90748074A0021121A05F05B
:1040400049F9014808BD00BFCCE0032080B70D004E
:1040500090E1032090E10320F0E7032070B504F025
:1040600087F8074C074BE41AA40800251E46A54212
:1040700004D056F8253098470135F8E770BD00BFE9
:1040800080B70D003CB70D0000F0E0B808B500F0B7
:1040900069FABDE8084004F039B801F0CDBB01F081
:1040A000D3BB01F0D1BB000008B5034A00210C20AE
:1040B00001F0B6FAFEE700BFF1520D000078B0FA49
:1040C00080F0400970470123037070470368C9B24C
:1040D0009B68184700224270704710B50170044673
:1040E00004F0D8F802F088F80120607010BD70B5B7
:1040F000064615460C4604F0CDF8317802F093F8E8
:1041000004F0C8F8210AFFF7E1FF04F0C3F8E1B2B8
:10411000FFF7DCFF04F0BEF8036829469B68984768
:1041200004F0B8F8BDE8704002F088B838B504462D
:104130000D4604F0AFF8217802F075F804F0AAF803
:10414000290AFFF7C3FF04F0A5F8E9B2FFF7BEFFA5
:1041500004F0A0F802F072F804F09CF80122217833
:1041600002F059F804F096F803685B699847C0B20A
:1041700038BD01F0EDB87047006A0368DB68184786
:1041800008B5064B01211020197004F040F80021F9
:104190001020BDE8084004F03AB800BF98E10320C1
:1041A00008B5034903F025FD003018BF012008BD04
:1041B00087AB0D0037B59DF8184023438DF80030CC
:1041C0003C23054601F0A8FD284603B030BD0000A1
:1041D0000A4B10B50446036002F0E4FB214602F0EE
:1041E000D1FD03F04FFF03F041FF2046044B40F8A0
:1041F000043B02F0CDFC204610BD00BF94AA0D0088
:104200007CAA0D0010B50446FFF7E2FF20462421EA
:1042100004F0A7F8204610BD08B501F071F8034B73
:104220001860BDE8084001F07FBA00BFD0E5032068
:1042300081B20148FFF77ABFA8E103200A4681B2A4
:104240000148FFF754BF00BFA8E10320F7B50021E4
:10425000042003F0CBFF0021082003F0C7FF012159
:10426000072003F0C3FF0121102003F0BFFF01214D
:10427000102003F0CCFF0021102003F0C8FF012123
:10428000062003F0B3FF002304222649264801F04C
:104290003BFA002302222549254801F035FA254A38
:1042A0002549264801F017FC01F04EFA0446E0B912
:1042B00001F042FA204601F043F8214E0446002561
:1042C0000027002001F03CF8001B61EB05018F4244
:1042D00008BF864205D301F037FA10B901F024FA7D
:1042E000EFE701F031FAFFF797FF164800F002FE02
:1042F00003F0BBFD0146134800F0C8FE124801F070
:1043000017FF0A4B1149BDEEC00A012283ED000AD6
:104310000023009308204FF0FF3301F0A9FF03B002
:10432000F0BD00BF5FAD0D00A4AA0D009CE103200D
:10433000ACAA0D00B7AA0D00A1410D00AB5A0D00AB
:104340008F5F0100D4E10320A0E1032081410D0033
:1043500008B50F2003F087FF04F0BAFA1DA3D3E9D4
:10436000002304F01BFB04F053FDDFED137A07EE8E
:10437000100A67EE277A17EE900A04F0BBFA0022C3
:104380000E4B04F057F900220D4B04F007FB04F02C
:1043900017FD04F09DFA00220A4B04F0FFFA0022F8
:1043A000094B04F025FC0022084B04F045F904F009
:1043B00007FD074B186008BD000080390000E03F92
:1043C000000059400000224000001440000040401E
:1043D00094E103206666666666660A4038B504683E
:1043E00005467CB16368013B63605BB92368204686
:1043F0009B689847A368013BA3601BB923682046CC
:10440000DB689847284638BD7FB50720FFF710FFC7
:10441000064601F099F960B1364B37491B78002206
:104420008DF8002002A8354AFFF7C4FE03A8FFF765
:10443000D5FF304D082400212046FFF7FFFEB4F5DC
:10444000005F09D101F080F9002838D000228DF8F2
:1044500000202B782A4A2BE0B4F5804F08D101F0D8
:1044600073F960B300228DF800202B78254A0AE00A
:10447000B4F5C04F10D101F067F900B300228DF8F8
:1044800000202B78204A214902A8FFF793FE03A8B9
:10449000FFF7A4FF0134CEE747F6FF739C420ED12D
:1044A00001F052F978B100228DF800202B78184ADB
:1044B000164902A8FFF77EFE03A8FFF78FFF01341D
:1044C000B4F5004FB7D131460720FFF7B7FE012101
:1044D0000020FFF7B3FE00210520FFF7AFFE1721F4
:1044E0000620FFF7ABFE0A210220FFF7A7FE04B06B
:1044F00070BD00BFAAE103209EAB0D00C1AA0D0054
:10450000D7AA0D00F1AA0D0005AB0D00EBAA0D0016
:1045100019AB0D001FB54FF47A7001F0DDF90F4BA8
:104520000F491B78002202A88DF80020FFF742FEF9
:1045300003A8FFF753FF0121072003F068FE4FF4A3
:10454000FA6001F0C9F90021072003F060FE4FF482
:10455000FA6001F0C1F9FFF75FFEECE7AAE1032082
:1045600029AB0D00F0B5B44CB4492378B44A97B0E8
:10457000002506A88DF80050FFF71CFE07A8FFF7DE
:104580002DFF4FF47A7001F0A7F9FFF745FEAD4813
:1045900000F0D0FD5021AC48FFF79FFD58B98DF8D1
:1045A00000002378A94AAA4906A8FFF703FE07A836
:1045B000FFF714FF11E02846FFF73AFE01280CD060
:1045C0002378A44AA2498DF8005006A8FFF7F2FD0F
:1045D00007A8FFF703FFFFF717FF4FF47A7001F00A
:1045E0007BF9FFF719FE0020FFF722FE00220128C9
:1045F0008DF80020237814BF974A984A944906A85A
:10460000FFF7D8FD07A8FFF7E9FE4FF47A7001F035
:1046100063F9FFF701FEFFF79BFE00250346904A72
:10462000402106A801F030F923788E498DF800501A
:1046300006AA02A8FFF7BEFD03A8FFF7CFFE4FF4BE
:104640007A7001F049F9FFF7E7FD7E4800F042FD7E
:104650007C4800F07DFC06467A4800F0F5FB0746F2
:10466000784800F037FC014602A803F02BFB029BC0
:104670007D4A019340213346009706A801F004F9D2
:1046800002A803F042FA237878498DF8005006AA70
:1046900002A8FFF78FFD03A8FFF7A0FE4FF47A7082
:1046A00001F01AF9FFF7B8FD2378714A71498DF8C6
:1046B000005002A8FFF77EFD03A8FFF78FFE4FF41E
:1046C0007A7001F009F9042003F0BAFD10B1FFF788
:1046D000A3FDF8E72378684A66498DF8000002A830
:1046E000FFF768FD03A8FFF779FE4FF47A7001F039
:1046F000F3F8FFF791FD614F614E624D00F000FE4F
:1047000033683A68134498421ED35F4801F010FDA5
:10471000FDEEC07A5D4AC5ED007A17EE903A402171
:1047200006A801F0B1F80022237859498DF800203D
:1047300002A806AAFFF73EFD03A8FFF74FFEFFF70A
:104740006BFD00F0DDFD30602B68412BD6DD0027CE
:104750002378504A50498DF8007002A8FFF72AFDCF
:1047600003A8FFF73BFE03F080FB4C4D0646FFF726
:1047700007FD2F7000F0E8FF58B12F4B484A1B7817
:1047800048498DF8007002A8FFF714FD03A8FFF751
:1047900025FE4FF47A7001F09FF8FFF73DFD2B786E
:1047A00033B9FFF739FD4FF47A7001F095F8F6E769
:1047B00003F05BFB3C23801B3B4A90FBF3F340215F
:1047C00006A801F061F800F0BFFF58B100228DF893
:1047D000002002A82378354906AAFFF7EBFC03A8BE
:1047E000FFF7FCFD4FF47A70002501F075F8FFF734
:1047F00013FD23782E4A2F498DF8005002A8FFF7A9
:10480000D9FC03A8FFF7EAFD4FF47A7001F064F8D1
:10481000FFF702FD0121062003F0F9FC2378264A68
:1048200024498DF8005002A8FFF7C4FC03A8FFF745
:10483000D5FDFFF76FFE00BFAAE1032060AB0D00BE
:104840004DAB0D00D4E10320A8E103206BAB0D00BC
:1048500081AB0D0089AB0D00A3AB0D00BCAB0D000F
:10486000CDAB0D00E0AB0D00E8AB0D001CAC0D00B6
:1048700024AC0D0036AC0D003EAC0D00CCE00320A6
:10488000D0E103209CE10320A0E1032059AC0D00FE
:1048900073AC0D007BAC0D0096AC0D0098E10320CD
:1048A0009EAC0D00C3AC0D00D3AC0D00F1AC0D00FF
:1048B00002AD0D0026AD0D002EAD0D0070B50468E3
:1048C00043681426054606FB0346A64204D020464C
:1048D00003F01BF91434F8E7286800F0B5FF284608
:1048E00070BD8842F8B506460C46154616D990426A
:1048F00015D2A2F114056C1AA1F114070444AF42B9
:104900001CD02CB12946204603F0EFF82B7C2374F1
:10491000284603F0FAF8143D143CF0E70ED0AC4200
:104920000CD02EB12146304603F0DFF8237C3374DF
:10493000204603F0EAF814341436F0E7F8BD2DE908
:10494000F04100230360436083604E689E4204464A
:104950000F4624DD4FF0140808FB06F000F06CFF52
:104960000546E0B194E8060008FB0212FFF7B9FF24
:10497000206800F069FF2560A6603E687B6808FB40
:104980000368464509D02DB13146284603F026F983
:10499000337C2B7414361435F3E77B686360204650
:1049A000BDE8F0812DE9F041324B334C8CB001274A
:1049B0001F70002500F0CCFC3048FFF78BFB009502
:1049C0000195029503F05EFB6946804603A8FFF758
:1049D000B6FF264603A906A8FFF7B1FF284B46F805
:1049E000043B06A909A8FFF7AAFF09AA1E21304621
:1049F00002F02BFB09A8FFF761FF06A8FFF75EFF97
:104A0000204B2360C4F8208003A8FFF757FF1E4BFC
:104A1000236003F037FB4FF4165103F023FB1B4ECA
:104A200001F0C0FF214602F0A3FA6846FFF746FFF7
:104A3000324617492046174C03F08EFC294638466B
:104A400000F026FE2946204601F032FB324612498C
:104A5000204603F081FC03F01DFC104C014620466B
:104A600000F086F932460E49204603F075FC0CB082
:104A7000BDE8F081AAE10320ACE10320A8E1032016
:104A80007CAA0D00D4B00D0094AA0D0090E1032083
:104A9000D1410D00A0E10320CF600D00D4E103203F
:104AA000BB4A0D00402070470020704780207047AF
:104AB000FF207047704770477047704710B514214A
:104AC000044603F04EFC204610BD10B508210446F4
:104AD00003F047FC204610BD10B50821044603F042
:104AE00040FC204610BD10B51C21044603F039FCE3
:104AF000204610BD2DE9FF410368DB680546984755
:104B000010220146684604F0E5FB2B6828469B68A6
:104B10009847002407462046BC420ED23E1B102E6A
:104B20002B6828BF1026D3F818806A4633462146E2
:104B30002846C04708B13444EEE704B0BDE8F08130
:104B40000368C9B29B6818470EB400B58CB00DAAB3
:104B5000202352F8041B03928DE806000493016899
:104B6000002304AA1E20059300F062FD0CB05DF83E
:104B700004EB03B07047002301228372C2720273F8
:104B800042738373C373037443747047012208B57F
:104B90004271022282710322064BC2710422036019
:104BA000027200230722037142724374FFF7E3FF8E
:104BB00008BD00BFB4AE0D0003090A2200F00F00CB
:104BC00002FB0300704708B5807AFFF7F5FF00F598
:104BD000FA6008BDC07A00F01F00FFF7EDBF007B50
:104BE00000F03F00FFF7E8BF08B5817B4A060DD50E
:104BF00001F01F00FFF7E0FF8B0603D50C280BD058
:104C00000C3008BD0C2808BF002008BD01F03F0093
:104C1000BDE80840FFF7D0BF08BDC07B00F07F00B3
:104C2000FFF7CABF007C00F07F00FFF7C5BF10B5DB
:104C30008AB024220021044601A804F04BFB204640
:104C4000FFF7C1FFA0F26C7006902046FFF7C2FF8D
:104C5000013805902046FFF7C2FF04902046FFF779
:104C6000C3FF03902046FFF7D8FF02902046FFF7CE
:104C7000D9FF019001A804F011FC0AB010BD0A226E
:104C800090FBF2F393FBF2F102FB113102FB1303F1
:104C900043EA0110C0B27047642310B5044691FB8B
:104CA000F3F000FB1310FFF7EAFFA07210BD10B580
:104CB00004460846FFF7E3FFE07210BD10B5044656
:104CC0000846FFF7DCFF237B23F03F0318432073E4
:104CD00010BD10B50446481CFFF7D1FF637B23F0DD
:104CE00007031843607310BD10B504460846FFF76C
:104CF000C6FFA07310BD10B504460846FFF7BFFFFE
:104D0000E07310BD10B504460846FFF7B8FF237CDA
:104D100023F07F031843207410BD37B5044602A862
:104D200040F8041D04F00EF9054641692046FFF7DE
:104D3000B3FF296920460131FFF7B9FFE968204632
:104D4000FFF7BCFFA9692046FFF7C3FFA96820460B
:104D5000FFF7CAFF69682046FFF7CDFF29683B29A6
:104D6000A8BF3B212046FFF7CDFF03B030BD0000B8
:104D7000084A0260002202724272012282720346D5
:104D80000322C272044A41601861C260034A9861FA
:104D900042617047C4AE0D0094AD0D0070AD0D00C2
:104DA0002DE9F84F05460F4691469A4600240A9B86
:104DB0009C4230D23946686801F035FA09EB0401AB
:104DC0006868FFF7BDFE0021686801F033FA064607
:104DD000D8B90A9B68681A1B202A28BF2022012301
:104DE000D2B2394601F00EFA0AEB04088346464671
:104DF000C8EB06039B4506D9686803685B6998475A
:104E000006F8010BF4E75C44D1E702460449054883
:104E1000FFF79AFE00E000263046BDE8F88F00BF9D
:104E20000EAE0D00F0E103201FB5012300930A46EA
:104E300003AB6F21FFF7B4FF10B99DF80C0000E041
:104E4000002005B05DF804FB08B50321FFF7ECFF77
:104E5000C0F3401008BD7FB51E46002B0CBF0723D2
:104E600006230093144602AB0A466F21FFF798FF12
:104E70000546D8B99DF8083023749DF80930E373CE
:104E80009DF80A30A3739DF80B3063739DF80C30C6
:104E900023739DF80D30E3721EB99DF80E30A37296
:104EA00004E002F0E9FFFFF7EAFEA072284604B032
:104EB00070BD38B500230C460A4619460546FFF773
:104EC000CAFF28B9A37A1BB12846FFF7BDFF00B976
:104ED000002038BD10B586B0044601A8FFF756FE85
:104EE00001A92046FFF7E5FF10B101A8FFF79FFEDB
:104EF00006B010BD30B5044685B0406801F07CF9BD
:104F000002F092FFC0B9E37A9B0715D52046FFF760
:104F1000E1FF054680B102F0CAFE094B09491B6852
:104F20002A46684602F04EFF0748009A0749FFF7F5
:104F30000BFE684602F0E9FD0123237205B030BD87
:104F4000D8E0032080E40320F0E1032028AE0D0028
:104F500008B5FFF7BFFF003018BF012008BD2DE9DD
:104F6000F34101EB03081E4603689B6804460D46A7
:104F70001746984780450AD800963B46EAB2572123
:104F80006068FFF70DFFB0FA80F0400900E00020F4
:104F900002B0BDE8F0812DE9F34101EB03081E46A4
:104FA00003689B6805460C461746984780450CD811
:104FB00004F1200200963B46D2B26F216868FFF7E9
:104FC000EFFEB0FA80F0400900E0002002B0BDE83A
:104FD000F08100002DE9F84F0746894692469B462E
:104FE00000240A9B9C4228D24946786801F01BF9AC
:104FF0000AEB04017868FFF7A3FD0A9B1E1B1F2E16
:105000000BEB040828BF1F264546786815F8011BDE
:10501000026892689047C8EB0502B242F5D30121BD
:10502000786801F007F9054628B1024605490648A7
:10503000FFF78AFD02E03444D3E700252846BDE8A7
:10504000F88F00BF3DAE0D00F0E103201FB5137CCB
:105050008DF80830D37B8DF80930937B8DF80A30BA
:10506000537B8DF80B30137B8DF80C30D37A8DF891
:105070000D30937A8DF80E30072300930A4602AB69
:105080006F21FFF7A7FF05B05DF804FB10B586B0F0
:10509000044601A8FFF77AFD01A8FFF73EFE9DF840
:1050A0001430A27A63F07F038DF814309DF811302C
:1050B00012B143F0080301E023F0080301AA002124
:1050C00020468DF81130FFF7C1FFB0FA80F040099B
:1050D00006B010BD7FB5064602F0A6FE0446B8B184
:1050E00002F0C3FE054601463046FFF7CFFF0C4BEA
:1050F0000C491B682A460446684602F063FE009A83
:1051000009490A48FFF720FD684602F0FEFC03E06B
:1051100007490648FFF718FD204604B070BD00BFE0
:10512000D8E0032080E4032058AE0D00F0E1032016
:105130006EAE0D0037B5457A04468DB902F074FEA7
:1051400070B102A8294640F8045D00F015FB38B1A3
:10515000E37ADB0702D52046FFF7BCFF0123637229
:1051600003B030BD2DE9F34101EB03081E4603688F
:105170009B6805460C461746984780450CD804F1B5
:10518000200200963B46D2B26F216868FFF722FFEB
:10519000B0FA80F0400900E0002002B0BDE8F081E4
:1051A00038B5054632245721686801F03CF80121E2
:1051B000686801F03FF808B1013CF4D138BD000047
:1051C0002DE9F0410546D7181446C2EB0108BC4250
:1051D0001ED05721686801F026F808EB04016868C2
:1051E000FFF7AEFC686814F8011B03689B689847DA
:1051F0000121686801F01EF8064628B102460649FA
:105200000648FFF7A1FC04E02846FFF7C9FFDEE7E8
:1052100000263046BDE8F08183AE0D00F0E10320AA
:105220002DE9F04101EB03081E4603689B68044624
:105230000D461746984780450AD833463A46E9B2A4
:105240006068FFF7BDFFB0FA80F04009BDE8F0816B
:105250000020BDE8F081000008B500F079F8024BAD
:10526000024A1A6008BD00BFF0E10320A4AE0D00A1
:1052700008B5024B1B689B68019308BD48020300F8
:1052800008B5024B1B681B69019308BD4802030067
:1052900008B5024B1B685B69019308BD4802030017
:1052A00008B5024B1B681B6B019308BD4802030045
:1052B00008B5024B1B685B6C019308BD48020300F4
:1052C00008B5024B1B68DB6C019308BD4802030064
:1052D00008B5024B1B685B6D019308BD48020300D3
:1052E00008B5024B1B685B68019308BD18020300F8
:1052F00008B5024B1B68DB68019308BD1802030068
:1053000008B5024B1B685B69019308BD18020300D6
:1053100008B5024B1B68DB69019308BD1802030046
:1053200008B5024B1B681B6A019308BD18020300F5
:1053300008B5024B1B689B6D019308BD1802030062
:1053400008B5024B1B68DB6D019308BD1802030012
:1053500008B5024B1B681B68019308BD2C020300B3
:1053600008B5024B1B685B68019308BD2C02030063
:1053700008B5024B1B689B68019308BD2C02030013
:1053800008B5024B1B68DB68019308BD2C020300C3
:1053900008B5024B1B681B69019308BD2C02030072
:1053A00008B5024B1B685B69019308BD2C02030022
:1053B00008B5024B1B689B69019308BD2C020300D2
:1053C00008B5024B1B68DB69019308BD2C02030082
:1053D00008B5024B1B681B6B019308BD2C02030030
:1053E00008B5024B1B68DB68019308BD2802030067
:1053F00008B5024B1B685B69019308BD28020300D6
:1054000008B5024B1B689B69019308BD2802030085
:1054100008B5024B1B68DB69019308BD2802030035
:1054200008B5024B1B681B6A019308BD28020300E4
:1054300008B5024B1B685B6A019308BD2802030094
:1054400008B5024B1B689B6A019308BD2802030044
:1054500008B5024B1B68DB6A019308BD28020300F4
:1054600008B5024B1B681B6B019308BD28020300A3
:1054700008B5024B1B685B6B019308BD2802030053
:1054800008B5024B1B681B6C019308BD2802030082
:1054900008B5024B1B689B6C019308BD28020300F2
:1054A00008B5024B1B68DB6C019308BD28020300A2
:1054B00008B5024B1B685B69019308BD64020300D9
:1054C00008B5024B1B689B68019308BD6802030086
:1054D00008B5024B1B68DB68019308BD6802030036
:1054E00008B5024B1B68DB69019308BD300203005D
:1054F00008B5024B1B681B6A019308BD300203000C
:1055000008B5024B1B681B68019308BD3C020300F1
:1055100008B5024B1B689B68019308BD3C02030061
:1055200008B5024B1B68DB68019308BD3C02030011
:1055300008B5024B1B681B69019308BD3C020300C0
:1055400008B5024B1B685B69019308BD3C02030070
:1055500008B5024B1B689B69019308BD3C02030020
:1055600008B5024B1B68DB69019308BD3C020300D0
:1055700008B5024B1B681B6A019308BD3C0203007F
:1055800008B5024B1B689B6A019308BD3C020300EF
:1055900008B5024B1B68DB6A019308BD3C0203009F
:1055A00008B5024B1B681B68019308BD4C02030041
:1055B00008B5024B1B685B68019308BD4C020300F1
:1055C00008B5024B1B689B68019308BD4C020300A1
:1055D00008B5024B1B681B69019308BD4C02030010
:1055E00008B5024B1B685B69019308BD4C020300C0
:1055F00008B5024B1B689B69019308BD4C02030070
:1056000008B5024B1B68DB69019308BD4C0203001F
:1056100008B5024B1B681B6A019308BD4C020300CE
:1056200008B5024B1B685B6B019308BD6002030069
:1056300008B5024B1B685B6D019308BD6002030057
:1056400008B5024B1B68DB6E019308BD60020300C6
:1056500008B5024B1B681B6F019308BD6002030075
:1056600008B5024B1B681B68019308BD20020300AC
:1056700008B5024B1B685B68019308BD200203005C
:1056800008B5024B1B685B69019308BD200203004B
:1056900008B5024B1B68DB6A019308BD20020300BA
:1056A00008B5024B1B68DB6C019308BD20020300A8
:1056B00008B5024B1B685B6D019308BD2002030017
:1056C00008B5024B1B689B6D019308BD20020300C7
:1056D00008B5024B1B68DB6D019308BD2002030077
:1056E00008B5034B1B68D3F88830019308BD000050
:1056F0002002030008B5034B1B68D3F894300193D4
:1057000008BD00002002030008B5024B1B681B689F
:10571000019308BD4402030008B5024B1B685B6897
:10572000019308BD4402030008B5024B1B689B6847
:10573000019308BD4402030008B5024B1B68DB68F7
:10574000019308BD4402030008B5024B1B685B6966
:10575000019308BD4402030008B5024B1B681B6A95
:10576000019308BD4402030008B5024B1B681B6B84
:10577000019308BD4402030008B5024B1B685B6B34
:10578000019308BD4402030008B5024B1B68DB6BA4
:10579000019308BD4402030008B5024B1B685B6817
:1057A000019308BD4002030008B5024B1B689B68CB
:1057B000019308BD4002030008B5024B1B68DB687B
:1057C000019308BD4002030008B5024B1B681B692A
:1057D000019308BD4002030008B5024B1B685B69DA
:1057E000019308BD4002030008B5024B1B689B698A
:1057F000019308BD4002030008B5024B1B68DB693A
:10580000019308BD4002030008B5024B1B681B6AE8
:10581000019308BD4002030008B5024B1B681B6BD7
:10582000019308BD4002030008B5024B1B685B6B87
:10583000019308BD4002030008B5024B1B681B68BA
:10584000019308BD1C02030008B5024B1B685B688E
:10585000019308BD1C02030008B5024B1B689B683E
:10586000019308BD1C02030008B5024B1B681B69AD
:10587000019308BD1C02030008B5024B1B689B691D
:10588000019308BD1C02030008B5024B1B68DB69CD
:10589000019308BD1C02030008B5024B1B681B6A7C
:1058A000019308BD1C02030008B5024B1B685B6A2C
:1058B000019308BD1C02030008B5024B1B68DB6A9C
:1058C000019308BD1C02030008B5024B1B681B6B4B
:1058D000019308BD1C0203000021FFF7D1BE10B5E3
:1058E000836804460BB902F056FDC3689847A36865
:1058F0001BB1032221462046984720461021BDE8CF
:10590000104002F02EBD10B5036804469B6898470E
:10591000A368013BA3602BB923682046DB68BDE880
:105920001040184710BD0B68036013B15A6801326C
:105930005A60704738B50C6803689C4205460CD025
:1059400014B1636801336360286828B14368013B80
:1059500043600BB9FFF7D7FF2C60284638BD000025
:10596000024800230360FFF7A3BC00BFF4E103205B
:10597000002211464068FFF727BF00221146406809
:10598000FFF742BF002211464068FFF74DBF0022DB
:105990004068FFF741BF002281F001014068FFF736
:1059A0002BBF00231A4619464068FFF71DBF00238E
:1059B0001A4619464068FFF70FBF0022114640689B
:1059C000FFF7F2BE002202214068FFF7F5BE002378
:1059D0001A464068FFF7E0BE38B5084C28252A462D
:1059E0000021204603F076FC4FF0FF336360044B48
:1059F000258004225A60034A1A6038BD00E2032061
:105A0000F8E10320D4AE0D0070470020704710B5B8
:105A10001021044602F0A5FC204610BD08B508B1CF
:105A2000FFF7F5FF08BD10B58368044613B10322E4
:105A300001469847204610BD0022026010B54FF67F
:105A40009C728280B1F9044084808A8002680C686C
:105A500004600A6010BD10B504460068FFF7F4FE4C
:105A6000204610BD38B5C468F4B12378022B03D1A9
:105A700004F10C00FFF7EFFF656835B12846FFF72A
:105A8000D2FF1021284602F06CFCA56835B12846EB
:105A9000FFF7C9FF1021284602F063FC20461421BD
:105AA000BDE8384002F05DBC38BD10B588B0044692
:105AB000684602F071F8694604A802F08FF804A85D
:105AC000A047044604A802F020F8684602F01DF83A
:105AD000204608B010BDF0B5102485B007460E462C
:105AE000154600212246684603F0F4FB0022694671
:105AF0001046ADF80040029703960195FFF70CFEA3
:105B000005B0F0BD13B5044691E8050000234B60D5
:105B10000B602060626001A801930093FEF75EFCB9
:105B2000204602B010BDF7B50C4602AD54F8043B58
:105B300045F8083D06460F4601A82146FFF7F3FE4B
:105B400029463046FFF7DEFF01A8FEF747FC204656
:105B5000FEF744FC3846082102F003FC304603B04F
:105B6000F0BD13B50B46044603C88DE8030093E867
:105B7000030084E803009DE8030083E8030002B00B
:105B800010BD000038B500230446036010200D4608
:105B9000FEF783FA28B1012343608360024B036060
:105BA000C5602060204638BD08AF0D00826810B582
:105BB0000AB902F0F0FBC368BDE81040184708B509
:105BC000006800F11001FFF7F1FF08BD826810B511
:105BD0000AB902F0E0FBC368BDE81040184708B5F9
:105BE000006800F11001FFF7F1FF08BD38B5002390
:105BF00083608B6804460D462BB102229847EB6800
:105C0000E360AB68A360204638BD0000F0B589B002
:105C100004686846FFF710FF00238DF808304FF046
:105C20000202D4E84F3F002B03D1C4E8412F0029E2
:105C3000F7D102D08DF8083063E014F10C0503D0E1
:105C400069462846FFF7F8FEBFF35F8F01236370B4
:105C5000002004F10803BFF35F8F53E8006F43E8AF
:105C60000002002AF9D1BFF35F8F002E49D0FFF761
:105C700017FD20B129463046FFF798FF3AE031463C
:105C800002A8FFF7B3FFE068B4F9105008B103F0C1
:105C9000C9FD06901020ADF81C50FEF7FEF9054630
:105CA000E8B1002787601820FEF7F7F9044688B1AD
:105CB0000146876002A8FFF754FF049BA268A36017
:105CC000059B049206A9E268E36004F110000592C6
:105CD000FFF7B2FE0D4BEB600D4B2C60AB6006A8DE
:105CE000FFF7B9FE02A8FFF79EFE002229460948E9
:105CF000FFF7DEFC3046FFF796FE1021304602F03B
:105D000030FB6846FFF7A7FE09B0F0BDBF5B0D0092
:105D1000355E0D00DF580D002DE9F04F8BB00646C3
:105D20000F46904699469DF850A0FFF70DFD07AD30
:105D3000834630BB4FF62E73059005A92846ADF873
:105D40001830FFF779FE1420FEF7A7F9044658B182
:105D50000223037001234370C0F804B0C0F808B0F8
:105D600029460C30FFF768FE3046214640F8044BC8
:105D7000FFF708FF2846FFF76EFE05A8FFF76BFE4A
:105D800052E000240C2314206C60AC600793FEF7F3
:105D900084F9014618B1047044704460846004A81A
:105DA0000391FFF7EFFE224B08930820FEF775F9E9
:105DB000044628B1039B40F8043B04A9FFF7B3FD58
:105DC00000955FFA8AF34A46414638460994FFF740
:105DD000C3FC20B9039B5B7803F0FF0283B1039BF4
:105DE000059304A906A8FFF79EFD05A93046FFF715
:105DF00089FE06A8FEF7F2FA04A8FEF7EFFA13E010
:105E00004FF69C7305A903A80592ADF81830FFF76B
:105E1000FDFE05A8FFF71FFE05A80999FFF783FE01
:105E200006A8FEF7DBFADAE730460BB0BDE8F08FE4
:105E3000A55F0D00022AF8B5044606D0032A17D044
:105E4000012A22D10B6803601FE018200E68FEF7BC
:105E500024F9054650B13146FFF7C8FE3069B6F95E
:105E6000147008B103F0DEFC2861AF8225600CE0FD
:105E7000046854B104F11000FFF7EDFD2046FFF770
:105E8000D2FD1821204602F06CFA0020F8BD38B58A
:105E9000002383608B6804460D462BB1022298478D
:105EA000EB68E360AB68A360204638BD022A70B59A
:105EB000044606D0032A11D0012A18D10B680360CA
:105EC00015E014200E68FEF7E8F8054620B13146CB
:105ED000FFF7DDFF337C2B74256008E0046834B1E4
:105EE0002046FFF7A0FD1421204602F03AFA0020D8
:105EF00070BD0000F0B5002387B00C46BFF35F8F84
:105F000050E8006F40E80032002AF9D1BFF35F8FFC
:105F1000002E3FD01846FFF7C3FB074620B12146AD
:105F20003046FFF753FE2EE0314601A8FFF7AFFFE2
:105F300023788DF814301020FEF7AFF80546D0B165
:105F400087601420FEF7A9F8044678B187600146FF
:105F500001A8FFF706FE039BA268A360049B0392BF
:105F6000E268E3609DF81430049223740A4BEB60FE
:105F70000A4B2C60AB6001A8FFF755FD00222946B3
:105F80000748FFF795FB3046FFF74DFD10213046DF
:105F900002F0E7F907B0F0BDDF5B0D00AD5E0D006C
:105FA000DF580D0030B585B004460D4668461146F1
:105FB000FFF7B9FD7CB124B228460DB103F032FCE5
:105FC000029002A96846ADF80C40FFF71FFE02A838
:105FD000FFF741FD1DE000988DF808404FF00102E9
:105FE000D0E84F3FA34203D1C0E8412F0029F7D1A9
:105FF00002D08DF808300CE010F10C014FF00103D5
:1060000018BF0373BFF35F8F043000F8033CFFF742
:1060100071FF01A8FEF7E2F905B030BD002211467C
:106020004068FFF7F1BB002211464068FFF7FCBB58
:1060300000224068FFF7F0BB002281F001014068B8
:10604000FFF7DABB00231A4619464068FFF7CCBBBE
:1060500000231A4619464068FFF7BEBB00221146CE
:106060004068FFF7B1BB002211464068FFF79CBBB8
:10607000002202214068FFF79FBB00231A464068B8
:10608000FFF78ABB024B03225A60024A1A6070472C
:1060900028E2032024AF0D00006800F0D6B810B548
:1060A0000446016002710AB1FFF7F6FF204610BDF9
:1060B00038B504460D4602F00DF92A460146204641
:1060C000FFF7EDFF204638BD006800F0C7B810B5F7
:1060D000037904460BB1FFF7F7FF204610BDF8B572
:1060E000044616461D460F46FFF7D6FF20683621A8
:1060F00000F09DF82068036839469B6898470121A5
:10610000206800F097F8022236210123206800F071
:1061100085F8206803685B699847307020680368D9
:106120005B69984728702046BDE8F840FFF7CCBF70
:1061300007B502AB002203F8012D8DF806200421DB
:106140000DF10602FFF7CBFF9DF8070002F0C0FB40
:106150000022094B02F022FC02F05AFE9DF80630A4
:1061600000EE103A07EE900AB8EEC00A37EE800A49
:1061700003B05DF804FB00BF0000703F7047F8B546
:10618000064615460C468F18BC4206D0336814F8F4
:10619000011B9B6830469847F6E72846F8BD002269
:1061A000007CFFF73DB90021007CFFF741B90021D9
:1061B000007CFFF745B90021007CFFF749B90021B9
:1061C000007CFFF74DB910B51421044602F0C9F860
:1061D000204610BD10B504464FF47A730846A360FC
:1061E0000021044B207461602360FFF749F92046C9
:1061F00010BD00BF58AF0D0000231A461946007CA1
:10620000FFF7EEB813B50024007C0094FFF7F0F818
:10621000C0B202B010BD0123FFF7F4BFDBB2D2B2AF
:10622000C9B2FFF7EFBF0022007CFFF7E9B8C9B29F
:10623000FFF7F9BF0022007CFFF7EAB80121FFF762
:10624000F9BF0021007CFFF713B908B50021007CDD
:10625000FFF71EF9B0FA80F0400908BD08B500212B
:10626000007CFFF71DF9B0FA80F0400908BD004737
:10627000F0B585B01C460E4617460546FFF7A0F858
:10628000002084424FF0040303908DF80C30A5BF2A
:106290009DF828308DF80E30034603AB009332464C
:1062A0003B460649A8BF8DF80D402846FFF780F809
:1062B000B0FA80F0400905B0F0BD00BF6F620D007C
:1062C000704710B51821044602F04BF8204610BD67
:1062D000F0B5037D062B8DB00E4600F104074FF09C
:1062E000000402D000F1080518E00CAD394605F8AD
:1062F000304D2F232A460A20FFF7DAF8284603F00C
:10630000C1FF33680246DB682946304698470FE0F4
:1063100024B12E21304601F03DFB044415F8011D47
:106320000A22304601F072FBBD420444F0D12046FF
:106330000DB0F0BD10B5054B0446112240F8043BEA
:10634000002102F0C7FF204610BD00BF80AF0D0046
:106350000346074A10B543F8042B01F1100251F827
:10636000044B43F8044B9142F9D10A781A7010BDDE
:1063700080AF0D0010B59DF8084044EA032343EABE
:10638000024242EA016104234160037510BD37B542
:106390000D788B784A78C97800912946FFF7EAFF93
:1063A00003B030BD00F11002012312F8101C0129C6
:1063B000104604D152F8041C03EB410304E0022907
:1063C00004BF52F8041C5B18013B02F11002ECD12F
:1063D00070470EB42DE9F04187B000AF07F13404E7
:1063E000054654F8046B7C6023463246102107F1C1
:1063F0000800FFF759FA0F2816D900F1080323F017
:106400000703E846ADEB030D3246411C23466846C0
:106410007C60FFF749FA021E04DD2B6869469B6821
:1064200028469847C54607E030B12B6802469B686E
:1064300007F10801284698471C37BD46BDE8F041E2
:1064400003B0704713B502AB026803F8011D9468EE
:1064500019460122A04702B010BD8368FBB11A782B
:10646000032A1AD8DFE802F00417021D052070473E
:1064700002685B685268D05C2D2814D0A0F130030C
:10648000092B10D9742810D066280ED0A0F16E0305
:106490005842584170470620704700207047184600
:1064A000704704207047032070470220704710B5E2
:1064B0000446FFF7D2FF02280DD016D3042814D8C3
:1064C0002268A36850685B680A2200211844BDE86E
:1064D000104003F08DBF2268A36852685B68D05CEF
:1064E000A0F174035842584110BD002010BD10B5F2
:1064F000436904465BB18068E060013B1030A060F6
:10650000206163612BB1FFF74DFFA06001E01846E9
:1065100010BD012010BD10B57D210446FFF792FF8C
:1065200001232371204610BD08B50379012B02D049
:10653000022B02D008BD2C2100E03A21FFF782FF98
:1065400008BD10B50446FFF7EFFF20467B21FFF79B
:1065500079FF00232371204610BD000038B50446A2
:106560000D46FFF7E1FF23680449DB6820462A4611
:10657000984701232371204638BD00BFABB40D00FE
:1065800038B504460D46FFF7CFFF23680449DB68A2
:1065900020462A46984701232371204638BD00BF74
:1065A0009BAF0D00F8B50D461746222104462F4437
:1065B000FFF748FF2A462946BA4238D0164616F851
:1065C000015B222D03D05C2D01D01F2D2DD8236817
:1065D000521A9B68204698475C212046FFF732FFFD
:1065E0000C2D19D007D8092D0FD00A2D12D0082D47
:1065F00014D162210AE0222D05D05C2D03D00D2D8F
:106600000CD1722102E0294600E074212046FFF7F8
:1066100019FF09E06E21F9E76621F7E723680A49C7
:10662000DB682A462046984731463246C4E7914205
:1066300004D02368521A9D682046A847222120468C
:10664000FFF700FFF8BD00BFA6AF0D0070B5044610
:106650000D461646FFF768FF204632462946FFF7EB
:10666000A1FF02232371204670BD70B504460D467C
:106670001646FFF759FF204632462946FFF792FF9C
:1066800001232371204670BD10B50023044603602A
:1066900043601048A060E360D1B10B78032B06D0B3
:1066A000B3B9136858684B68C35C6E2B08D0136885
:1066B00058684B680344A3608B6849685B1AE360C1
:1066C0001146204651F8043B40F8043BFFF732F9ED
:1066D000204610BD92B00D00002310B504460360A3
:1066E00043608360C3600361436171B10B78012B28
:1066F0000BD101F110038360CB684361114651F85F
:10670000043B40F8043BFFF715F9204610BD002379
:1067100010B5044603604360816031B1114651F801
:10672000043B40F8043BFFF705F9204610BD8068A4
:106730000368DB681847704719B10B6808465B6847
:106740001847704719B10B6808465B6818477047CF
:1067500070477047704738B504460D4600682E21D3
:1067600003F044F82368C31A2B6023B1037803B104
:10677000013023682060184638BD10B50C2104464E
:1067800001F0EFFD204610BD10B50421044601F0D4
:10679000E8FD204610BD10B50421044601F0E1FDDE
:1067A000204610BD38B50C46054601F06BFC84420E
:1067B0000DD001F0DBFB844205D101F0D7FBBDE831
:1067C000384001F0CCBB21462846FFF7BBFF38BD5F
:1067D00008B503F015F8B0FA80F0400908BD38B5E7
:1067E000054608460C4603F04DFD21460246284664
:1067F000BDE83840FFF739BF0068FEF761BD70B5EE
:10680000044608460D4603F03DFD2368024629462E
:106810002046DB68BDE87040184713B502AB02683C
:1068200003F8011DD46819460122A04702B010BD2B
:106830002DE9F04F4568076885B09146142255430D
:106840000193AB10194D02925D438B463C460123E8
:10685000002D039323DD029B6E1003FB06F004EB77
:1068600000084A46B8F804A02058D14528BF52462F
:10687000594603F00FFD039B48B9D14503D1019A56
:1068800013703546E4E78CBF0120002000E0C00F04
:106890000028F6D0AE1B08F11404013EF1E7E41B1A
:1068A0000248A410604305B0BDE8F08FCDCCCCCC3D
:1068B000F0B585B003690191067E13B309B304AF47
:1068C000002347F8043D00F10C041D46394601A899
:1068D000FFF741FF0146A0B104AB039A03F8055D41
:1068E0002046FFF7A5FF9DF80B3053B12368142411
:1068F00004FB0034083434F9023C002BA8BFDEB29C
:10690000E4E7304605B0F0BD10B5094C2368DB075D
:106910000BD42046FDF7D2FB38B12046FDF7D3FB60
:10692000044A0549054801F017FD044810BD00BFA1
:1069300030E2032090E1032053670D00D4E00320F0
:1069400010B5094C2368DB070BD42046FDF7B6FBD6
:1069500038B12046FDF7B7FB044A0549054801F068
:10696000FBFC044810BD00BF60E2032090E103205F
:1069700051670D00D0E0032038B5002504460560BE
:106980004560856005614561856140F8245FFEF7DB
:106990008FFCFFF7B9FFE061FFF7D2FF257320629C
:1069A000204638BD10B50A4C2368DB070ED42046BC
:1069B000FDF784FB50B10748FFF7DEFF2046FDF7E7
:1069C00082FB054A0549034801F0C6FC014810BD99
:1069D00034E2032038E2032090E103200F6E0D0023
:1069E0000023024A02490348FEF732BEF16C0D0053
:1069F000816C0D00096C0D0000231A4619461846DB
:106A0000FEF726BE73B502AC0E6951F8043B44F89C
:106A1000083D054601A8FEF786FF22463146284676
:106A2000FFF775FE01A8FDF7D9FC284602B070BD3E
:106A300073B502AC8E6851F8043B44F8083D054636
:106A400001A8FEF770FF224631462846FFF744FEB4
:106A500001A8FDF7C3FC284602B070BD73B502ACB7
:106A6000CE6851F8043B44F8083D054601A8FEF7FE
:106A70005AFF224631462846FFF706FE01A8FDF7D9
:106A8000ADFC284602B070BD30B58BB00D46014656
:106A900004A8FFF7CDFF04A8FFF729FDE8B104A97A
:106AA0006846FFF7DBFF0F490298FFF791FE0446A7
:106AB00010B12C1C18BF012401A8FDF78FFC002C7D
:106AC000E9D004A96846FFF79DFF6846FFF7EFFC91
:106AD000286001A8FDF782FCDDE705A8FDF77EFC34
:106AE0000BB030BDF4AF0D0037B50C46204613494E
:106AF000154602F085FE40B901F0C4FA4FF4165174
:106B000001F0B0FA01F0BEFA15E00D49204602F09E
:106B100077FE78B902A94FF4165341F8043D284690
:106B2000FFF7B2FF01F022FA019901F015FA01F026
:106B30001DFA00E0002003B030BD00BFF9AF0D002A
:106B400000B00D0070B5046843681426054606FBC6
:106B50000346A64205D004F10800FFF7F3FF143402
:106B6000F7E72868FEF770FE284670BD70B5046828
:106B70004368054604EB0316A64204D0204600F005
:106B8000C4FF1034F8E72868FEF75EFE284670BDA3
:106B900010B504460C30FFF7D5FF2046FFF7E6FF9F
:106BA000204610BD10B5044B044640F8043BFFF7E7
:106BB000EFFF204610BD00BF7CAA0D0010B50446B3
:106BC000FFF7F0FF2046242101F0CBFB204610BD4B
:106BD00010B5034B03600446FFF7E4FF204610BDE9
:106BE000CCAF0D0010B50446FFF7F2FF204624217C
:106BF00001F0B7FB204610BD10B5036804461868C5
:106C0000FEF766FB204610BD2DE9F04F9B461B4B5F
:106C10005B68C3F3080385B082460E46904653BBBB
:106C2000FFF7C0FE044624300390FFF7E5FD237B09
:106C3000F3B90123237325686368F6B205EB830972
:106C40004D4513D055F8047B4146381DFFF730FE03
:106C50008642F5D33B68CDF800B09B689E46384627
:106C60004346324651467746B847E9E70023237347
:106C700003A8FFF7C1FF05B0BDE8F08F00ED00E00D
:106C80002DE9F74F9946194B5B68C3F30803074694
:106C90008846164633BBFFF785FE04462430019034
:106CA000FFF7AAFD237BD3B901232373256863680B
:106CB0005FFA86FB05EB830A55450ED055F8046B49
:106CC0004946301DFFF7F4FD8345F5D3336842464E
:106CD000DB68394630469847EEE70023237301A866
:106CE000FFF78AFF03B0BDE8F08F00BF00ED00E0C2
:106CF0002DE9F341154B5B68C3F30803044688464E
:106D0000FBB9FFF74FFE064624300190FFF774FDF4
:106D100096E8A000462605EB8707AF4207D101A8F9
:106D2000FFF76AFFB442B4BF002001200AE055F823
:106D3000040B41460430FFF7BBFD8642A8BF064660
:106D4000EBE7002002B0BDE8F08100BF00ED00E0FD
:106D500070B503684268044603EB82029A42184603
:106D60000ED006680D68AE4203F10403F6D1011D92
:106D7000521A02F094FA6368013B6360012070BD0F
:106D8000002070BD1FB50446243001910390FFF729
:106D900033FD01A92046FFF7DBFF20B903A8FFF769
:106DA0002BFF04B010BD6368002BF7D1FFF724FE62
:106DB000F4E770B5056943691826044606FB0356D7
:106DC000AE4215D005F110012046FFF7C1FF636800
:106DD0000BB9FFF711FEE06929690368DB68984782
:106DE000696919B1206A0368DB6898471835E7E7D5
:106DF00025696369182606FB0356B54204D0284668
:106E000000F083FE1835F8E70023636170BD73B5A9
:106E1000044602ADFFF7F0FD04F1240045F8040D2F
:106E2000FFF7EAFC2046FFF7C4FF2846FFF7E4FE21
:106E300025696369182606FB0356B54204D0284627
:106E400000F063FE1835F8E72069FEF7FDFC2068C6
:106E5000FEF7FAFC204602B070BD03680A680260C3
:106E60000B6043684A6842604B6083688A6882604E
:106E70008B60704710B50023044603604360836055
:106E8000FFF7EBFF204610BD8842F8B504461646D2
:106E900025D9904224D2551A143D2C44A1F114074F
:106EA000A2F10C050026A5F108039F4237D084B15A
:106EB00055F8083C236035F8043CA38035F9023CC2
:106EC000E380A660E6602661294604F10800FFF72A
:106ED000C4FF2846FFF736FE143C143DE3E71ED0FE
:106EE00001F108050027A5F108039E4217D084B1DF
:106EF00055F8083C236035F8043CA38035F9023C82
:106F0000E380A760E7602761294604F10800FFF7E6
:106F1000A4FF2846FFF716FE14341435E3E7F8BD46
:106F2000F8B5456883689D4204460E4617460EDB59
:106F30000135002D05DDA9000068FEF78DFC20B9A4
:106F4000F8BD0068FEF780FC00202060A560256881
:106F5000626805EB860105EB8202521A081D02F0F9
:106F60009EF945F826706368013363600120F8BD1F
:106F700037B5044624300D460190FFF73DFC2368E9
:106F8000616803EB810083421A4609D01268AA4265
:106F900003F10403F7D101A8FFF72EFE00250EE050
:106FA0002A462046FFF7BCFF05460028F3D0636859
:106FB000012B01D1FFF714FD01A8FFF71DFE2846A4
:106FC00003B030BD8842F8B506460C46154614D9C4
:106FD000904213D2A2F110056C1AA1F110070444DB
:106FE000AF4218D01CB12946204600F07EFD28464D
:106FF00000F08BFD103D103CF2E70CD0AC420AD003
:107000001EB12146304600F070FD204600F07DFDA7
:1070100010341036F2E7F8BD70B50E1E05460BDDD4
:107020003001FEF709FC044670B195E8060001EB5B
:107030000212FFF7C7FF00E000242868FEF704FCF7
:107040002C60AE60012070BD70BD2DE9F04F0023B3
:1070500095B092464622036043608360C36003613B
:10706000436102760291DAF80410089399420546CA
:1070700009930A9340F39D8008A8FFF7CDFF0028ED
:1070800040F097808EE021460BA800F02EFD0BA962
:107090000FA8099E00F029FD09990A9B9942C0F2A8
:1070A000CE80013108A8FFF7B7FF002840F0C78065
:1070B0000FA800F02AFD0BA800F027FD1434A7420A
:1070C000E1D100260B960C960D96B146099B9E4287
:1070D00080F2A8803301089AD3580693002B00F061
:1070E0009F8014237343CDF81C9001930BAC07A928
:1070F00006A8FFF730FB0746002800F0918014AB8C
:10710000014603F8399D079A2046FFF791FB9DF849
:1071100017800090B8F1000F53D1BDF81C30ADF8C6
:1071200040304FF6FF730F97ADF84230CDF84480F2
:10713000CDF84880CDF84C806768A3689F424FDA4D
:10714000009BD4F800B06168142253430BEB030793
:1071500002FB01B207F1140039460393FFF794FED6
:10716000A7B1039B0F9A4BF80320BDF84030BB80BA
:10717000BDF94230FB80C7F80890C7F80C90C7F8FB
:10718000109011A907F10800FFF767FE636801334B
:10719000636011A8FFF7D6FCB8F1000F11D00BA85F
:1071A000FFF7D0FC08A8FFF7E1FC284615B0BDE8C2
:1071B000F08FDAF80040DAF80430142707FB0347B1
:1071C0007DE72368009A142404FB0234069B1B7895
:1071D00023BBDAF80030019A13441B7CE3801DE0E6
:1071E0000137002F0FDD142303FB07F00393FEF795
:1071F00023FB834678B194E80600039B03FB02124D
:10720000FFF742FE00E0C3462068FEF71DFBC4F80E
:1072100000B0A76094E74FF00108BAE7083466E7CA
:10722000013653E708A92846FFF717FE0BA905F119
:107230000C00FFF712FE9DF808302B76AFE7089B95
:10724000099A03EB061603EB0212314606F1100011
:10725000FFF7B8FE1EB10FA9304600F046FC099BAF
:107260000133099324E700007FB50446094B44F835
:10727000043B05460E4601A81146FDF760FB01AA36
:1072800031462046FFF7E1FE01A8FDF717FB28462F
:1072900004B070BD7CAA0D00F0B50F468BB02B4931
:1072A000109C384616461D4602F0AAFA28BB002C50
:1072B00049D0294601A8FFF7DDFD2549242001F02A
:1072C0005BF80546B8B101A904A8FFF7D3FD04A9EE
:1072D00007A8FDF734FB07AA31462846FFF7C4FF8D
:1072E00007A8FDF7EBFA1B4B2B602C6204A8FDF7F7
:1072F000E5FA194B2B6001A81FE01849384602F047
:107300007FFAF0B9FCB1294604A8FFF7B3FD104994
:10731000242001F031F8054670B104A907A8FDF753
:107320000EFB07AA31462846FFF79EFF07A8FDF788
:10733000C5FA084B2B602C6204A8FDF7BFFA28465B
:1073400002E0002000E020460BB0F0BD4FB00D0081
:10735000FCB10D00D4B00D00CCAF0D0053B00D004A
:10736000014B024A1A60704764E2032064B00D00CA
:107370002DE9F047089DD0F8209004460E461746A8
:10738000984600F07FFE814505D15A4800F067FA23
:10739000002840F0AC802B791B0705D56B69564A55
:1073A000206A002100F034FBB8F1000F0DD05B2102
:1073B0002046FFF732FA41462046FFF720FA2368BD
:1073C0004E49DB680222204698472B79D90725D5FC
:1073D000D5F808802F21404602F071FF08B100F176
:1073E000010841462046FFF70AFA2B799A0709D58A
:1073F0003A212046FFF711FAEB68414A206A002142
:1074000000F006FB2B7913F0040F236818BF3D49E9
:10741000DB6808BF3C490222204698472B795B076E
:1074200018D529690A46134613F8010B38B12028EC
:1074300001D1194601E0282801D01A46F3E7236854
:10744000521ADB682046984723683049DB680422DB
:107450002046984700213846FEF7F2F801462046BC
:10746000FFF7CDF923682849DB68022220469847B8
:107470001EB131462046FFF7C2F92B7913F0300FC9
:107480002DD023682249DB682046022298472B79B9
:10749000D8060BD523681F49DB680722204698478A
:1074A000AB691D4A206A002100F0B2FA2B799906D7
:1074B00011D5DA0605D523681249DB680222204679
:1074C000984723681549DB6820460A229847E969EE
:1074D0002046FFF794F95D212046FFF79EF92368C7
:1074E0000F49DB6820460222BDE8F0471847BDE897
:1074F000F08700BF3CE4032068B00D006FB00D00C2
:10750000ABB40D0072B00D0077B00D0075B00D007A
:107510007AB00D007DB00D0070AC0D0085B00D008F
:1075200090B00D002DE9F04385B0D0F820800C9C80
:1075300006460F4691461D4600F0A4FD804505D144
:107540004A4800F08CF9002840F08C80336A484AA1
:1075500001924FF0000801A803938DF80880FEF710
:10756000F0FF41464846FEF76BF84249804601224B
:1075700001A8FFF76BF84146FFF731F93FB13E49EB
:10758000012201A8FFF762F83946FFF728F93DB15B
:107590003A49012201A8FFF759F82946FFF71FF9D8
:1075A0002379DF070ED5A5682F21284602F087FE34
:1075B00000B1451C3249012201A8FFF747F82946CE
:1075C000FFF70DF923799D0707D52E49022201A85F
:1075D000FFF73CF8E168FEF7C1FF2379580716D59D
:1075E00025692F463B4613F8012B3AB1202A01D1D9
:1075F0001D4601E0282A01D01F46F3E70222224956
:1076000001A8FFF723F87A1B2946FFF72EF8237904
:10761000190707D51D49012201A8FFF717F861696D
:10762000FEF7AEFF2379DA0608D5042218490DEBE0
:107630000200FFF70BF8A169FEF790FF23799B0684
:1076400007D51449062201A8FFF700F8E169FFF702
:10765000C6F801A8FEF75FFF306A0F4903680222EF
:10766000DB68984705B0BDE8F08300BF3CE4032029
:10767000B4AF0D00FEAF0D0011B00D000DB50D0043
:1076800093B00D0095B00D0098B00D007BB50D00C6
:107690009BB00D00A0B00D0090B00D00002211466F
:1076A0004068FEF7B1B8002211464068FEF7BCB84A
:1076B00000224068FEF7B0B8002281F00101406866
:1076C000FEF79AB800231A4601214068FEF78CB8ED
:1076D00000231A4619464068FEF77EB8002211467C
:1076E0004068FEF771B8002211464068FEF75CB8AA
:1076F000002202214068FEF75FB800231A46406866
:10770000FEF74AB838B5054688B104684CB1A3689D
:107710001BB103222146204698471021204600F045
:1077200020FE28461421BDE8384000F01ABE38BDBE
:1077300010B103685B681847704710B503680446CA
:10774000BBB15868FDF794FD78B923685A7C12B92B
:107750005868FDF795FD23685868FDF799FD206886
:107760000023236028B1FFF7CDFF206808B1FFF7A1
:10777000C9FF204610BD000038B50C4B036004461D
:10778000D0F8CC0108B1FCF78CFCD4F8C45135B169
:107790002846FFF7D2FF0421284600F0E2FDA0684A
:1077A00008B1FFF7C5FF204638BD00BF04B10D008A
:1077B00038B50E4C0E4B23600025022304F5E4700F
:1077C0006360A560C4F8C451C4F8C851FDF770FDEA
:1077D000084BC4F8CC5184F8D05123602046064AA7
:1077E0000649BDE8384000F0B7BD00BF68E203209D
:1077F00038B10D0004B10D0090E1032079770D0040
:1078000000231A464068FDF7C7BF002202214068E6
:10781000FDF7D2BF002211464068FDF7C5BF002228
:1078200011464068FDF7D0BF00231A46194640684C
:10783000FDF7D2BF00231A4619464068FDF7D4BFB2
:10784000002281F001014068FDF7D6BF00224068A8
:10785000FDF7E2BF002211464068FDF7E5BF0022B8
:1078600011464068FDF7D0BF2DE9F043002495B0E4
:1078700016460D460746FEF75DFD214620220CA860
:10788000009401F027FD40230C9321466B460CAA7F
:107890003046FDF71DFE0446002844D10246012172
:1078A0006868FDF791FF0221804622466868FDF76F
:1078B0008BFF009E81462146002E34D0002932D114
:1078C0007368022B02D00A2B09D02AE0B8F1000F0E
:1078D00027D0716938460431FEF759FD20E0B9F12F
:1078E000000F1ED07469112201A801F0F3FC0623D9
:1078F0008DF8143001AD04F1080318341868596884
:107900002A4603C20833A3421546F7D101A906A8A7
:1079100007ADFEF71DFD0FCD3C1D0FC42B68237076
:107920000121F669C8E70098FDF7CAFD384615B091
:10793000BDE8F083024B034A1A6000225A60704788
:107940003CE4032038B10D00F8B506460D468F180B
:107950000024BD420CD0336815F8011B9B683046EB
:107960009847002801DB0444F3E7002C08BF0446D5
:107970002046F8BD70B505460C46084649B102F0F0
:1079800081FC2B68024621462846DB68BDE8704032
:10799000184770BD03689B68184738B50D21054628
:1079A000FFF7F8FF0A2104462846FFF7F3FF2044BB
:1079B00038BD30B58BB00B4600218DF82410012A5C
:1079C00098BF0A220DF12304B3FBF2F505FB123335
:1079D00003F0FF03092B94BF30333733DBB221466A
:1079E00004F801392B46002DEED1FFF7C3FF0BB091
:1079F00030BD10B42AB903685DF8044B9B68C9B266
:107A00001847D2B25DF8044BFFF7D3BFFFF7F1BFC1
:107A10000CB42DE9F04387B000AF07F138040546F8
:107A200054F8049B3C600E4623464A461421381DF8
:107A3000FDF73AFF132805D8391D2846FFF79AFFAE
:107A4000044613E000F1080323F00703E846ADEB1A
:107A5000030D411C23464A4668463C60FDF724FF5F
:107A600069462846FFF786FF0446C5461EB12846EC
:107A7000FFF793FF044420461C37BD46BDE8F043A2
:107A800002B0704710B50446FDF7CDFF204610BD8B
:107A90000348044A04490023836000F05DBC00BF32
:107AA00044E4032090E10320857A0D00704710B56F
:107AB0001021044600F055FC204610BD70B5084B5F
:107AC0000360044600250E4640F80C5FFDF7E8FB16
:107AD00030462671FDF704FDA560204670BD00BF4D
:107AE0006CB10D000079FDF703BD00230360436016
:107AF0008360037310B50C6804604C6844608C6844
:107B000084600B604B608B6010BD10B5044600684C
:107B1000FDF79AFE204610BD10B50446006808B176
:107B2000FDF792FE00232360A360636010BD38B5AB
:107B300004460D4600680131FDF78EFE10B184E861
:107B40002100012038BD10B50368044613B1436815
:107B50008B4207D22046FFF7EAFF20B1A3680BB99A
:107B600022681370012010BD70B50E461146044600
:107B70001546FFF7E8FF18B92046FFF7CDFF09E0EB
:107B80002A463146A560206801F07EFB2268A36882
:107B90000021D154204670BD38B50023044603604F
:107BA0004360836003730D4639B1084602F06AFBF7
:107BB000294602462046FFF7D7FF204638BD8842B7
:107BC00010B50B46044607D0096819B19A68FFF74B
:107BD000CBFF01E0FFF7A0FF204610BD10B500234A
:107BE00004460360436083600373FFF7E8FF2046A9
:107BF00010BD08B582680B4612B919B9012008BD3D
:107C000011B90368187802E0006801F0F9FDB0FAD4
:107C100080F0400908BD0000044B00204FF6FF72C1
:107C2000187058809A80FDF723BD00BF54E40320EC
:107C3000F0B5144B144F1E68144B064418683B688B
:107C400006449E428BB01BD00AA801AD40F8286DB7
:107C500001F022FA436903F26C73436104460FCCCE
:107C60000FC50FCC0FC5D4F800E0C5F800E001AD9A
:107C70000FCD074C0FC40FCD0FC43E60C4F800E019
:107C80000BB0F0BD90E403208CE4032088E40320D3
:107C90005CE4032008B50020FDF766FD28B1FDF780
:107CA00053FD80F00100C0B208BD012008BD08B539
:107CB000FDF736FB002211461046BDE80840FDF7EF
:107CC00007BD000037B50E4B1B6819440D4B1B68F0
:107CD000044602A8194440F8041D01F0DDF901F042
:107CE000E7F8054602F0CEFA2844002300F8013CEC
:107CF00029462046FFF750FF204603B030BD00BFA5
:107D000090E4032088E403202DE9F047A4B014ACEC
:107D100007468946204611461D4601F07BFD204658
:107D200002F0B0FA804625B9244903A801F072FD9B
:107D300013E03C2195FBF1F2002AB8BF524292FBBE
:107D4000F1F301FB132200924FF461631C4A95FB8F
:107D5000F3F3102103A8FDF797FD25462E1B08F12C
:107D6000FF3AB2451BD92B78252B16D16B787A2B8D
:107D700013D103A802F086FA80463044C6EB0A020B
:107D8000A91C204401F080FA424603A9284601F0CC
:107D90007BFA204602F076FA80460135DEE74B4654
:107DA0002246322107A801F0B9FD07A93846FFF79E
:107DB000F3FE384624B0BDE8F08700BF01B70D00E0
:107DC00074B10D00F7B5054601921C4613B9124B6C
:107DD0001C682CB1114B2046196801F011FD20B927
:107DE00001992846FFF76EFF13E00D4F019A3B689B
:107DF0000C4E1A44336802A8134440F8043D01F0C5
:107E00004BF93A6833680146134428462246FFF787
:107E10007BFF284603B0F0BD84E40320D8E00320B4
:107E200090E4032088E4032010B50020FDF780FAD9
:107E3000044668B9FDF714FC01280BD12046FDF774
:107E40003FFC38B9FFF726FF30B9FDF76DFCF9E7C5
:107E5000012010BD002010BDFFF71CFF0020FDF722
:107E600067FA003018BF012010BD08B5FFF7DCFF2E
:107E7000BDE80840FDF74CBA08B5FFF7F6FFFFF77D
:107E8000D7FE014B586908BD5CE40320024B1A6819
:107E9000024B1A60704700BFD8E0032084E403203F
:107EA00070474174704708B5007CFDF769FB20EA14
:107EB000E07008BD08B5007CFDF73AFB20EAE070F1
:107EC00008BD08B5007CFDF743FB30EA200028BF61
:107ED0004FF0FF3008BD08B5007CFDF731FB30EAFC
:107EE000200028BF4FF0FF3008BD007CFDF738BBF5
:107EF00010B51421044600F034FA204610BD70B5C8
:107F0000457C04460E4625B9007CFDF739FB002868
:107F100005DD3146207CBDE87040FDF701BB2846F9
:107F200070BD000010B5044608461146002262608C
:107F30004FF47A72A260054A2260012220746274B2
:107F40001A46FDF7DDFA204610BD00BFA4B10D00B2
:107F50000023007CFDF71CBB0022FFF7F9BF007C6B
:107F6000FDF7D6BA007CFDF703BB000038B50C4D19
:107F7000296811F0010411D12846FCF79FF868B177
:107F8000084A094B09482146FFF7CCFF2846FCF771
:107F90009AF8074A0749054800F0DEF9034838BD5A
:107FA0002CE5032030E50320A8E4032094E403201B
:107FB00090E10320A17E0D0041747047704708B521
:107FC0000021007CFDF714FB30EA200028BF4FF0B1
:107FD000FF3008BD08B50121007CFDF709FB30EA40
:107FE000200028BF4FF0FF3008BD08B5007CFDF72A
:107FF000F7FA20EAE07008BD08B5007CFDF7E8FA62
:1080000020EAE07008BD007CFDF702BB10B514212A
:10801000044600F0A6F9204610BD38B50446007CA1
:108020000D46FDF7DDFA002801DC607C28B1294609
:10803000207CFDF7E5FA20EAE07038BD10B5044673
:10804000002363604FF47A73A360054B2360012320
:108050000846217463741146FDF7A2FA204610BD4C
:10806000D4B10D000022007CFDF7A2BA007CFDF720
:10807000A7BA10B514220446002101F02BF92046BE
:1080800010BD000030B50E4D87B001A8FFF7F1FF1D
:10809000296811F0010410D12846FCF70FF860B1EF
:1080A00001AA21460748FFF7C9FF2846FCF70BF84D
:1080B000054A0649034800F04FF9024807B030BDB1
:1080C000B4E50320B8E5032090E10320BD7F0D0057
:1080D00008B50C4B33B1FFF7D5FF03681B69984710
:1080E000002809DC084B63B1FFF740FF03681B69F8
:1080F0009847002803DC08BDAFF30080F2E7AFF338
:10810000008008BD000000000000000008B5FFF777
:10811000DFFFFDF7F5F8014B186008BDD0E503203F
:1081200007B5002300931A466FF07701FDF7E2FAD6
:1081300003B05DF804FB000007B543880A2B08D0A4
:10814000502B09D1094B1B683BB103B05DF804EB20
:108150001847FFF7E5FF06E0002300931A466FF08B
:108160007701FDF7C7FA03B05DF804FBCCE5032007
:1081700010B5FDF7B5F8044601F002FB074B13B14B
:108180002046AFF3008000210448FDF7FDFA0021EE
:108190000348BDE81040FDF7A3BA00BF000000008F
:1081A00039810D0010B504460F48FFF79BFC28B13C
:1081B000A4F10B03022B01D8002010BD00F06AF8D7
:1081C000FEF73FF808B1012CF6D9FFF7CFFEFFF715
:1081D000C9FE18B1A4F10903012BEDD9232C8CBFE2
:1081E0000020012010BD00BF04E60320232838B57D
:1081F00004460D460AD8FF2908D0FFF7D3FF28B15F
:1082000029462046BDE83840FDF7B2B838BD38B53C
:1082100004460D46FDF7B4F8FF2810D0062804D810
:108220004D2323FA00F0C30709D42046FFF7BAFF15
:1082300028B129462046BDE83840FDF7A9B838BD29
:1082400010B50446FDF79CF80438C0B2012808D9DF
:108250002046FFF7A7FF20B12046BDE81040FDF7FC
:108260009FB8002010BD0D2810B504469CBF0E34E9
:10827000A4B22046FFF796FF50B103212046FDF738
:108280006FF8032804D12046BDE81040FDF7A0B8E0
:10829000002010BD38B50B4D296811F001040FD135
:1082A0002846FBF70BFF58B121460748FDF792FF20
:1082B0002846FBF708FF054A0549034800F04CF83B
:1082C000014838BDD4E50320ECE5032090E103200C
:1082D0007D610D0010B50B4C2368DB070FD42046E1
:1082E000FBF7ECFE58B101210748FDF773FF20466C
:1082F000FBF7E9FE054A0649034800F02DF802485D
:1083000010BD00BF00E60320D8E5032090E1032064
:108310007D610D0070B50C4C0C4E0D4D00212046BA
:10832000FFF7CCFB20460B4C3246294600F014F8F0
:1083300001212046FFF7C2FB324629462046BDE810
:10834000704000F009B800BF04E6032090E103206C
:10835000AD7A0D0014E603200B460146184600F0E6
:10836000E3BDFBF79CBE0000024B1868BFF35F8FB4
:10837000704700BF24E6032010B5002814BF044650
:1083800001242046FDF758FA20B9FFF7EDFF08B1A8
:108390008047F6E710BD08B5FDF78EFA244B1A6842
:1083A000D0075CBF01221A60224B1A68D1075CBF5C
:1083B00001221A60204B1A68D2075CBF01221A60A2
:1083C0001E4B1A68D0075CBF01221A601C4B1A684A
:1083D000D1075CBF01221A601A4B1A68D2075CBF32
:1083E00001221A60184B1A68D0075CBF01221A607C
:1083F000164B1A68D1075CBF01221A60144B1A6829
:10840000D2075CBF01221A60124B1A68D0075CBF0A
:1084100001221A60104B1A68D1075CBF01221A6052
:108420000E4B1A68D2075CBF01221A60704700BF6A
:1084300054E6032050E603204CE6032048E60320E0
:1084400044E6032040E603203CE6032038E6032010
:1084500034E6032030E603202CE6032028E6032040
:10846000184B1A68D1075CBF01221A60164B1A68B4
:10847000D2075CBF01221A60144B1A68D0075CBF98
:1084800001221A60124B1A68D1075CBF01221A60E0
:10849000104B1A68D2075CBF01221A600E4B1A6893
:1084A000D0075CBF01221A600C4B1A68D1075CBF71
:1084B00001221A600A4B1A68D2075CBF01221A60B7
:1084C000704700BF74E6032070E603206CE60320CB
:1084D00068E6032064E6032060E603205CE60320F0
:1084E00058E60320184B1A68D1075CBF01221A60B6
:1084F000164B1A68D2075CBF01221A60144B1A6827
:10850000D0075CBF01221A60124B1A68D1075CBF0A
:1085100001221A60104B1A68D2075CBF01221A6050
:108520000E4B1A68D0075CBF01221A600C4B1A6808
:10853000D1075CBF01221A600A4B1A68D2075CBFE0
:1085400001221A60704700BF94E6032090E60320E2
:108550008CE6032088E6032084E6032080E60320DF
:108560007CE6032078E60320244B1A68D0075CBF22
:1085700001221A60224B1A68D1075CBF01221A60DF
:10858000204B1A68D2075CBF01221A601E4B1A6882
:10859000D0075CBF01221A601C4B1A68D1075CBF70
:1085A00001221A601A4B1A68D2075CBF01221A60B6
:1085B000184B1A68D0075CBF01221A60164B1A6864
:1085C000D1075CBF01221A60144B1A68D2075CBF46
:1085D00001221A60124B1A68D0075CBF01221A6090
:1085E000104B1A68D1075CBF01221A600E4B1A6843
:1085F000D2075CBF01221A60704700BFC4E60320A7
:10860000C0E60320BCE60320B8E60320B4E603205E
:10861000B0E60320ACE60320A8E60320A4E603208E
:10862000A0E603209CE6032098E6032081F00041A9
:1086300002E000BF83F0004330B54FEA41044FEA47
:10864000430594EA050F08BF90EA020F1FBF54EAE2
:10865000000C55EA020C7FEA645C7FEA655C00F07E
:10866000E2804FEA5454D4EB5555B8BF6D420CDD4F
:108670002C4480EA020281EA030382EA000083EAD2
:10868000010180EA020281EA0303362D88BF30BD72
:1086900011F0004F4FEA01314FF4801C4CEA1131C8
:1086A00002D0404261EB410113F0004F4FEA033327
:1086B0004CEA133302D0524263EB430394EA050FB2
:1086C00000F0A780A4F10104D5F1200E0DDB02FA21
:1086D0000EFC22FA05F2801841F1000103FA0EF2B5
:1086E000801843FA05F359410EE0A5F120050EF17B
:1086F000200E012A03FA0EFC28BF4CF0020C43FAAC
:1087000005F3C01851EBE37101F0004507D54FF0B8
:10871000000EDCF1000C7EEB00006EEB0101B1F508
:10872000801F1BD3B1F5001F0CD349085FEA30004E
:108730004FEA3C0C04F101044FEA445212F5800F59
:1087400080F09A80BCF1004F08BF5FEA500C50F1F6
:10875000000041EB045141EA050130BD5FEA4C0CD9
:10876000404141EB010111F4801FA4F10104E9D162
:1087700091F0000F04BF01460020B1FA81F308BF59
:108780002033A3F10B03B3F120020CDA0C3208DD25
:1087900002F1140CC2F10C0201FA0CF021FA02F100
:1087A0000CE002F11402D8BFC2F1200C01FA02F170
:1087B00020FA0CFCDCBF41EA0C019040E41AA2BF95
:1087C00001EB0451294330BD6FEA04041F3C1CDA5D
:1087D0000C340EDC04F11404C4F1200220FA04F07D
:1087E00001FA02F340EA030021FA04F345EA030127
:1087F00030BDC4F10C04C4F1200220FA02F001FAE9
:1088000004F340EA0300294630BD21FA04F029466A
:1088100030BD94F0000F83F4801306BF81F4801103
:108820000134013D4EE77FEA645C18BF7FEA655C76
:1088300029D094EA050F08BF90EA020F05D054EA48
:10884000000C04BF1946104630BD91EA030F1EBF4D
:108850000021002030BD5FEA545C05D14000494151
:1088600028BF41F0004130BD14F580043CBF01F544
:10887000801130BD01F0004545F0FE4141F470012A
:108880004FF0000030BD7FEA645C1ABF1946104605
:108890007FEA655C1CBF0B46024650EA013406BF06
:1088A00052EA033591EA030F41F4002130BD00BFC5
:1088B00090F0000F04BF0021704730B54FF4806482
:1088C00004F132044FF000054FF0000150E700BF03
:1088D00090F0000F04BF0021704730B54FF4806462
:1088E00004F1320410F0004548BF40424FF000014F
:1088F0003EE700BF42004FEAE2014FEA31014FEA92
:1089000002701FBF12F07F4393F07F4F81F06051E0
:10891000704792F0000F14BF93F07F4F704730B54F
:108920004FF4607401F0004521F0004120E700BFE2
:1089300050EA010208BF704730B54FF000050AE069
:1089400050EA010208BF704730B511F0004502D56A
:10895000404261EB41014FF4806404F132045FEA6C
:10896000915C3FF4DCAE4FF003025FEADC0C18BF11
:1089700003325FEADC0C18BF033202EBDC02C2F107
:10898000200300FA03FC20FA02F001FA03FE40EA99
:108990000E0021FA02F11444C1E600BF70B54FF099
:1089A000FF0C4CF4E06C1CEA11541DBF1CEA13557B
:1089B00094EA0C0F95EA0C0F00F0DEF82C4481EAE3
:1089C000030621EA4C5123EA4C5350EA013518BF03
:1089D00052EA033541F4801143F4801338D0A0FBF0
:1089E00002CE4FF00005E1FB02E506F00042E0FB9D
:1089F00003E54FF00006E1FB03569CF0000F18BFA3
:108A00004EF0010EA4F1FF04B6F5007F64F540744A
:108A100004D25FEA4E0E6D4146EB060642EAC621DD
:108A200041EA55514FEAC52040EA5E504FEACE2E4A
:108A3000B4F1FD0C88BFBCF5E06F1ED8BEF1004F4D
:108A400008BF5FEA500E50F1000041EB045170BDC9
:108A500006F0004646EA010140EA020081EA03010D
:108A6000B4EB5C04C2BFD4EB0C0541EA045170BD09
:108A700041F480114FF0000E013C00F3AB8014F183
:108A8000360FDEBF002001F0004170BDC4F10004CC
:108A9000203C35DA0C341BDC04F11404C4F120054D
:108AA00000FA05F320FA04F001FA05F240EA0200A8
:108AB00001F0004221F0004110EBD37021FA04F6DE
:108AC00042EB06015EEA430E08BF20EAD37070BD98
:108AD000C4F10C04C4F1200500FA04F320FA05F0F7
:108AE00001FA04F240EA020001F0004110EBD370F9
:108AF00041F100015EEA430E08BF20EAD37070BD69
:108B0000C4F1200500FA05F24EEA020E20FA04F341
:108B100001FA05F243EA020321FA04F001F00041F0
:108B200021FA04F220EA020000EBD3705EEA430E61
:108B300008BF20EAD37070BD94F0000F0FD101F090
:108B40000046400041EB010111F4801F08BF013CC9
:108B5000F7D041EA060195F0000F18BF704703F007
:108B60000046520043EB030313F4801F08BF013D8E
:108B7000F7D043EA0603704794EA0C0F0CEA13554A
:108B800018BF95EA0C0F0CD050EA410618BF52EA04
:108B90004306D1D181EA030101F000414FF000000A
:108BA00070BD50EA410606BF1046194652EA430618
:108BB00019D094EA0C0F02D150EA013613D195EA8C
:108BC0000C0F05D152EA03361CBF104619460AD1D4
:108BD00081EA030101F0004141F0FE4141F47001DE
:108BE0004FF0000070BD41F0FE4141F4780170BDCE
:108BF00070B54FF0FF0C4CF4E06C1CEA11541DBF33
:108C00001CEA135594EA0C0F95EA0C0F00F0A7F834
:108C1000A4EB050481EA030E52EA03354FEA013161
:108C200000F088804FEA03334FF0805545EA131374
:108C300043EA12634FEA022245EA111545EA10653C
:108C40004FEA00260EF000419D4208BF964244F1D3
:108C5000FD0404F5407402D25B084FEA3202B61AF2
:108C600065EB03055B084FEA32024FF480104FF4C6
:108C7000002CB6EB020E75EB030E22BFB61A75463A
:108C800040EA0C005B084FEA3202B6EB020E75EBCD
:108C9000030E22BFB61A754640EA5C005B084FEA35
:108CA0003202B6EB020E75EB030E22BFB61A754602
:108CB00040EA9C005B084FEA3202B6EB020E75EB0D
:108CC000030E22BFB61A754640EADC0055EA060ECE
:108CD00018D04FEA051545EA16754FEA06164FEA11
:108CE000C30343EA52734FEAC2025FEA1C1CC0D1BD
:108CF00011F4801F0BD141EA00014FF000004FF04A
:108D0000004CB6E711F4801F04BF01430020B4F10A
:108D1000FD0C88BFBCF5E06F3FF6AFAEB5EB030CC2
:108D200004BFB6EB020C5FEA500C50F1000041EBBF
:108D3000045170BD0EF0004E4EEA113114EB5C048C
:108D4000C2BFD4EB0C0541EA045170BD41F480115F
:108D50004FF0000E013C90E645EA060E8DE60CEA67
:108D6000135594EA0C0F08BF95EA0C0F3FF43BAF84
:108D700094EA0C0F0AD150EA01347FF434AF95EA3B
:108D80000C0F7FF425AF104619462CE795EA0C0F1F
:108D900006D152EA03353FF4FDAE1046194622E7EC
:108DA00050EA410618BF52EA43067FF4C5AE50EAC6
:108DB00041047FF40DAF52EA43057FF4EBAE12E7B6
:108DC0004FEA410212F5001215D211D56FF47873F3
:108DD000B3EB625212D94FEAC12343F0004343EA96
:108DE000505311F0004F23FA02F018BF4042704771
:108DF0004FF00000704750EA013005D111F00040FB
:108E000008BF6FF0004070474FF00000704700BF90
:108E10004FEA4102B2F1E04324BFB3F5001CDCF19C
:108E2000FE5C0DD901F0004C4FEAC0024CEA5070D4
:108E3000B2F1004F40EB830008BF20F00100704703
:108E400011F0804F21D113F13872BCBF01F0004006
:108E5000704741F480114FEA5252C2F11802C2F138
:108E6000200C10FA0CF320FA02F018BF40F00100B9
:108E70004FEAC1234FEAD32303FA0CFC40EA0C006B
:108E800023FA02F34FEA4303CCE77FEA625307D1A8
:108E900050EA01331EBF4FF0FE4040F440007047DF
:108EA00001F0004040F0FE4040F40000704700BF79
:108EB000094B70B51C68256C06463DB91A20FCF7B5
:108EC000BBFC1A222064294600F004FA216C3046CB
:108ED000BDE8704000F002B840E1032010B50C4638
:108EE00041690369826986B001F26C71049101687D
:108EF00003914168029181680191C168009107491D
:108F000003EB43030B44064902EB42020A442046AA
:108F10000449FCF7A9FC204606B010BD12B20D00B2
:108F2000FDB10D0036B20D0010B5054C13462CB145
:108F30000A4601460220AFF3008010BD204610BD56
:108F40000000000038B5074B1C68E36B05461BB9F1
:108F50002420FCF771FCE063E16B2846BDE8384053
:108F600000F002B840E103200268474BF0B592FBE5
:108F7000F3F403FB1422002ABCBF02F5A83202F569
:108F8000C0724FF4616004F52F2492FBF0F300FBF4
:108F900013224FF03C00ACBF04F66C2404F66B24A3
:108FA0008B6092FBF0F300FB13224B600A600723F7
:108FB000E21C92FBF3F3C3EBC303D31A8B61334B75
:108FC000334D94FBF5F503FB054448F6AC62B4FB66
:108FD000F2F2224440F2B457B4FBF7F3D21A2D4810
:108FE000B4FBF0F048F69466131AB3FBF6F634447B
:108FF00040F26D12B3FBF2F0B3FBF7F3E31A02FB9E
:109000001033992403EB83020232B2FBF4F20A2AF2
:1090100004FB02F404F102064FF00504B6FBF4F47D
:1090200034BF02266FF0090616444FF4C87202FBE3
:1090300005055F1C012E98BF0135B3F5997FA7EB9D
:10904000040702D3A3F5997214E0820705D16424C2
:10905000B0FBF4F204FB12024AB94FF4C872B0FB41
:10906000F2F402FB1400B0FA80F2520900E001228F
:109070003B331A44A5F26C750023CA614D610E6141
:10908000CF600B620846F0BD805101004FC5FDFF67
:10909000B13A0200B03A020038B5074B1C68E36BE6
:1090A00005461BB92420FCF7C7FBE063E16B2846AB
:1090B000BDE8384000F002B840E103202DE9F0415E
:1090C0000C46804601F0C2FC214607464046FFF7A9
:1090D0004BFF466906F26C76B307044605D164225D
:1090E00096FBF2F302FB13634BB94FF4C87596FB82
:1090F000F5F305FB1365B5FA85F35B0900E0012381
:109100005F4A302505FB032501F0BCFA01F0BCFAEB
:109110005C4B1B68F3B17B689E4205D13968D8F877
:109120000030FA6941B90AE0304601F003FA00283C
:10913000F4D14FF0FF330DE0934208DB01E093429E
:1091400007DABA6B9342ACBF0023012302E000238D
:1091500000E001232362236A012B0CBFF96B396AFB
:109160004FF461633C2091FBF3F603FB1613616837
:1091700093FBF0F200FB12302368891AA268616049
:109180001B1A921B3B2B2360A26003DD013161603F
:109190003C3B04E0002B03DA013961603C3323607F
:1091A00063683B2B03DD0132A2603C3B04E0002BF3
:1091B00003DA013AA2603C336360A368172B22DD17
:1091C000E2690132E261A2690132062AC8BF0022C7
:1091D000A261E268183B0132A3602369E26055F89E
:1091E00023108A4246DD01330C2B0CBF63692361D7
:1091F000A2EB0102E26001BF013300222261636140
:1092000008BFE26136E0002B34DAE269013AE2613C
:10921000A269013A48BF0622A261E2681833013A06
:10922000E260A36032BB2369013B01D423611DE0EE
:109230000B23236163695A1E12F0030F626103F26C
:109240006B7305D1642193FBF1F201FB12324AB931
:109250004FF4C87193FBF1F201FB1233B3FA83F3BD
:109260005B0900E0012303F5B673E361236955F858
:109270002330E36001F007FA2046BDE8F08100BF2B
:109280001CB40D00E4E7032010B5431E0A449142CC
:1092900004D011F8014B03F8014FF8E710BD8842E4
:1092A00010B501EB020301D8421E0BE09842FBD23D
:1092B0008118D21AD34204D013F8014D01F8014DA0
:1092C000F8E710BD994204D011F8014B02F8014FA4
:1092D000F8E710BD02440346934202D003F8011B95
:1092E000FAE77047F7B501683B29044611D93C22DB
:1092F000684601F053FB019A63680099002A0B4409
:109300006360BBBF3C3203F1FF3322602260B8BF11
:10931000636061683B2911D93C22684601F03EFB3D
:10932000019AA168009B002A0B44A360BBBF3C329A
:1093300003F1FF3362606260B8BFA360A1681729C0
:1093400011D91822684601F029FB019AE168009BB7
:10935000002A0B44E360BBBF183203F1FF33A26065
:10936000A260B8BFE36021690B2911D90C226846BD
:1093700001F014FB019A6169009B002A0B446361B0
:10938000BBBF0C3203F1FF3322612261B8BF6361BE
:109390006369990712D1642193FBF1F201FB123248
:1093A00072B903F26C734FF4C87193FBF1F201FBD5
:1093B0001233002B14BF1C231D2302E01C2300E0EA
:1093C0001D23E268002A06DD334F4FF0000E6425AE
:1093D0004FF4C87639E0304F0B2664204FF4C8753F
:1093E000D4F80CE0BEF1000F53DC21690139216192
:1093F000013118D163692661591E8A0761610FD155
:1094000091FBF0F200FB121161B903F26B7393FB55
:10941000F5F205FB1233002B14BF1C231D2302E0C1
:109420001C2300E01D232269012A14BF57F82220C3
:109430001A467244E260D3E78B422ADA18460132B8
:10944000091A0C2AE160226108D02269E168012A28
:10945000F2D057F822008142F1DC1AE06369C4F8C7
:1094600010E05A1C910762610FD192FBF5F105FBE8
:10947000112262B903F26D7393FBF6F206FB12330D
:10948000002B14BF1C231D23DFE71C23DDE71D2356
:10949000DBE703B0F0BD00BFECB30D002DE9F047F2
:1094A000054601F0D3FA81462846FFF71BFF95E8F1
:1094B0000C003C2101FB0323AA68EC684FF46168AF
:1094C00008FB02312B69AB4A52F82320013C012BE7
:1094D00014446B6911DD9E070FD1642093FBF0F2F9
:1094E00000FB123242B903F26C764FF4C87296FB5D
:1094F000F2F002FB106202B9013403F51C52103283
:1095000044F620608242EC611F4600F22E81462B19
:1095100022DD462240F26D1C64264FF4C87E90077F
:1095200010D192FBF6F006FB102070B902F26C78B5
:1095300098FBFEF00EFB1080002814BF60464FF42D
:10954000B77004E040F26D1001E04FF4B7700132E3
:1095500093420444E3D144E043D0452240F26D1EDF
:1095600064264FF4C8779A421ADD900710D192FB17
:10957000F6F006FB102070B902F26C7C9CFBF7F051
:1095800007FB10C0002814BF70464FF4B77004E00A
:1095900040F26D1001E04FF4B770241A013AE2E78F
:1095A000452BA8BF45239E071F4614D1642293FB79
:1095B000F2F302FB13738BB907F26C704FF4C873AC
:1095C00090FBF3F203FB1203002B40F26D1308BF74
:1095D0004FF4B77304E040F26D1301E04FF4B7733A
:1095E000E41A654800FB041801F04CF801F04CF84F
:1095F000624B1E68002E00F0A4802B6A6869012B64
:10960000A8BF01239A46D9F8043000F26C70984242
:109610000DD1D9F83820D9F82030D9F83C00D9F844
:109620001C10D61AB045A1EB000105DA07E000F0E6
:1096300081FF0028EDD176E0121A904573DBD9F84E
:10964000002012B1884577DB01E0884507DAB04594
:10965000ACBF00260126BAF1000F04DA64E0BAF1CB
:10966000000F63DB01268AEA060ABAF1010F5BD11B
:109670001B1A06B95B422A68D5F80CA01A442A6066
:1096800028469844FFF72EFEEB68B3EB0A034BD055
:10969000012B03DC981CD8BF012301E04FF0FF33FE
:1096A000EA691C449B181DD57B1E990714D16421BF
:1096B00093FBF1F201FB12338BB907F26B774FF496
:1096C000C87297FBF2F302FB1377002F40F26D1381
:1096D00018BF4FF4B67324E04FF4B67321E040F2A4
:1096E0006D131EE0BA0714D1642197FBF1F201FB60
:1096F00012728AB907F26C774FF4C87197FBF1F2D6
:1097000001FB1277002F40F26D1208BF4FF4B772C1
:1097100004E040F26D1201E04FF4B7729A42D8BFF4
:109720009B1AEB6100E05646012E0AD1D9F83C00A5
:10973000012608EB000708E0BAF1000F4FF0000621
:1097400091DAD9F8200008EB000700F09CFF043400
:10975000072394FBF3F3C3EBC303E41A48BF0734B6
:109760002E62AC613846BDE8F0874FF0FF30BDE8AF
:10977000F08700BFBCB30D0080510100E4E7032077
:1097800038B5124B1C68A36B0546D3B91820FCF7FB
:1097900053F843F20E33A06303804AF6CD3343807F
:1097A00041F2342383804EF26D63C3804DF6EC6347
:1097B0000381052343810B23838101220023C0E918
:1097C0000423A36B00221D615A6138BD40E10320D0
:1097D000C9B2034610F8012B1AB19142F9D11846CB
:1097E000704700290CBF18460020704710B504468A
:1097F000FFF7EEFF18B9204600F044FD204410BDED
:1098000010F8012B11F8013B012A28BF9A42F7D02A
:10981000D01A7047034611F8012B03F8012B002AD8
:10982000F9D17047024B0146186800F003B800BF39
:1098300040E1032070B5064608460C4600F022FDC4
:10984000451C29463046FCF73FF8064618B12A4623
:109850002146FFF719FD304670BD41698B0710B5F1
:109860000CD1002940F26C73A8BF6FF063030B4466
:10987000642493FBF4F204FB123383B9002940F211
:109880006C73A8BF6FF063034FF4C8720B4493FB73
:10989000F2F102FB1133B3FA83F2520900E0012224
:1098A0008369C1695B0003EB01131344212B0EDCB8
:1098B000202B2FDA0D2B02DC0A2B05DB2AE0102BE4
:1098C00026DB112B26DD1C3B012B23D920E041F2A6
:1098D000C66293420EDC41F2C262934216DA41F252
:1098E000A262934212D013DBA3F5B553123B022BB5
:1098F0000CD90DE041F2D562934207D041F2D76214
:10990000934203D041F2D362934201D1012010BDB2
:10991000002010BD4FF0FF3010BD00002DE9F04FCA
:1099200093B00E461D460746914600F0F3FD002316
:1099300006931C46731E0390029399F80030002B87
:1099400000F09284252B08D0029A944280F09084F3
:109950003B5509F101090134EFE799F801A0BAF18B
:10996000300F07D0BAF12B0F04D009F101094FF0E5
:10997000000A01E009F1020999F80030313B082B97
:1099800008D848460A220AA900F0BAFDDDF8289056
:10999000804601E04FF0000899F80030452B01D0D7
:1099A0004F2B01D109F1010999F80000A0F125031D
:1099B000552B00F25D84DFE813F04A045B045B047E
:1099C0005B045B045B045B045B045B045B045B049F
:1099D0005B045B045B045B045B045B045B045B048F
:1099E0005B045B045B045B045B045B045B045B047F
:1099F0005B046F00A100D4001A015B043F01A001C9
:109A000026022D025B045B045B0460025B045B04C2
:109A100068025B0497021D0325033B03430386038F
:109A2000C600A0031F045B045B045B045B045B04CF
:109A30005B0456008900BA000C010C015B04710143
:109A400089005B043D0226022D025D0262025B0476
:109A500068025B04BE009C021F032E035B047F03AD
:109A6000C2009203E703AB69039A183352F82380CC
:109A7000404600F007FC08F1FF383B1920448442BF
:109A800000F0EB83029A944280F0F28318F8012FE1
:109A900003F8012B0134F2E7AB69039A02EB83036D
:109AA000D3F87C80404600F0EDFB08F1FF383B190D
:109AB0002044844200F0D183029A944280F0D883FB
:109AC00018F8012F03F8012B0134F2E72B69039AF0
:109AD00052F82380404600F0D5FB08F1FF383B19CF
