:02000002D0002C
:1040000000400D0008B40D00000006000D00050181
:0840100004017D050000000021
:04401800F0A60D0001
:1040200009480A49884208B505D0094A824202D0A7
:10403000121A04F071FF0748074A0021121A04F00F
:1040400091FF014808BD00BF98E0032020B30D0098
:1040500058E1032058E10320F0E7032070B503F096
:1040600009FF074C074BE41AA40800251E46A54289
:1040700004D056F8253098470135F8E770BD00BFE9
:1040800014B30D00D0B20D0000F044BA08B500F032
:10409000C1FABDE8084003F0BBBE01F0E9BA01F087
:1040A000EFBA01F0EDBA000008B5034A00210C2078
:1040B00001F0E2F9FEE700BF59510D000078B0FAB7
:1040C00080F0400970470123037070470368C9B24C
:1040D0009B68184700224270704710B50170044673
:1040E00003F048FF01F024FF0120607010BD70B59F
:1040F000064615460C4603F03DFF317801F02AFFD5
:1041000003F038FF210AFFF7E1FF03F033FFE1B2CC
:10411000FFF7DCFF03F02EFF036829469B689847F2
:1041200003F028FFBDE8704001F01CBF38B504461D
:104130000D4603F01FFF217801F00CFF03F01AFF7A
:10414000290AFFF7C3FF03F015FFE9B2FFF7BEFF2F
:1041500003F010FF01F006FF03F00CFF01222178AD
:1041600001F0F5FE03F006FF03685B699847C0B2F3
:1041700038BD01F021B87047006A0368DB68184752
:1041800008B5064B01211020197003F0C2FE002172
:104190001020BDE8084003F0BCBE00BF60E1032072
:1041A00037B59DF8184023438DF800303C23054671
:1041B00001F09CFC284603B030BD00000A4B10B54E
:1041C0000446036002F082FA214602F06FFC03F01D
:1041D000DBFD03F0CDFD2046044B40F8043B02F02C
:1041E0006BFB204610BD00BF24A70D000CA70D00DF
:1041F00010B50446FFF7E2FF2046242103F021FF1B
:10420000204610BD81B20148FFF790BF62E1032054
:104210000A4681B20148FFF76ABF00BF62E103208E
:1042200007B50F2003F08EFE04F0C2F935A3D3E9E1
:10423000002304F023FA04F033FCDFED277A07EEC5
:10424000100A67EE277A17EE900A04F0C3F90022ED
:10425000224B04F05FF80022214B04F00FFA04F027
:104260001FFC04F0B7F900221E4B04F007FA0022ED
:104270001D4B04F02DFB00221C4B04F04DF804F004
:104280000FFC9FED1B7A07EE900AF4EEC77AF1EE71
:1042900010FA06D49FED177AF4EEC77AF1EE10FA11
:1042A0000CDD17EE900A04F095F9134ACDE90001F0
:1042B0004021124801F004FA002009E004F08AF9D4
:1042C0000F4ACDE9000140210C4801F0F9F9012025
:1042D00003B05DF804FB00BF000080390000E03F40
:1042E00000005940000022400000144000004040FF
:1042F00000007042000096423AA70D0094E10320AE
:1043000052A70D006666666666660A401FB51048CD
:1043100000F014FE0E4800F04FFD28B10D490E4884
:1043200005F0C0F8002010E0094800F007FD014644
:10433000684603F049FB009B084A0748402101F00A
:10434000BFF9684603F075FA012005B05DF804FB7B
:10435000D4E1032068A70D0094E103207EA70D009F
:1043600010B5074C00F000FF2368C01AB0F57A7F43
:1043700004D300F0F9FE2060012010BD002010BD24
:104380005CE1032008B5FFF7EBFF18B1BDE808407A
:10439000FFF7E6BF01F0E4F8F5E738B50468054635
:1043A0007CB16368013B63605BB9236820469B680E
:1043B0009847A368013BA3601BB923682046DB68CC
:1043C0009847284638BD00007FB50120FFF71AFF47
:1043D000064601F0D5F860B1304B31491B78002218
:1043E0008DF8002002A82F4AFFF7DAFE03A8FFF796
:1043F000D4FF2A4D082400212046FFF709FFB4F519
:10440000005F09D101F0BCF8002838D000228DF8F7
:1044100000202B78244A2BE0B4F5804F08D101F01E
:10442000AFF860B300228DF800202B781F4A0AE015
:10443000B4F5C04F10D101F0A3F800B300228DF8FD
:1044400000202B781A4A1B4902A8FFF7A9FE03A8EF
:10445000FFF7A3FF0134CEE747F6FF739C420ED16E
:1044600001F08EF878B100228DF800202B78124AE6
:10447000104902A8FFF794FE03A8FFF78EFF01344E
:10448000B4F5004FB7D131460120FFF7C1FE01213D
:104490000020FFF7BDFE04B070BD00BF64E1032043
:1044A0001FA80D009CA70D00B2A70D00CCA70D0002
:1044B000E0A70D00C6A70D00F4A70D0010B5502110
:1044C0000F48FFF70AFE044608B90E4912E0002023
:1044D000FFF798FE012801D0FFF776FF0020FFF7D5
:1044E00091FE012805D00849084804F0DBFF0024AC
:1044F00003E00749054804F0D5FF204610BD00BF82
:1045000062E1032004A80D0024A80D0094E103201B
:1045100047A80D00F0B5002185B0042003F0E8FCA9
:104520000021082003F0E4FC0121072003F0E0FC57
:104530000121102003F0DCFC0121102003F0E9FC34
:104540000021102003F0E5FC0121062003F0D0FC3F
:10455000002304222549264800F0FAFF01F010F854
:10456000044600BB01F004F8204600F01DFE214E79
:10457000044600250027002000F016FE001B61EB1A
:1045800005018F4208BF864205D300F0F9FF10B93C
:1045900000F0E6FFEFE700F0F3FF00F0E5FD164B5B
:1045A000186000F0DDFF154800F0D8FB03F0DFFADB
:1045B00000240146114800F09DFC00944FF0FF33A9
:1045C00001220F49082001F0E7FC0E4B0E490122A1
:1045D0001A700E4B0E4A1B788DF8004002A8FFF7A8
:1045E000DFFD03A8FFF7D9FE05B0F0BD34A70D002D
:1045F00058A80D008F5F0100D0E50320D4E103200F
:1046000081410D0061E1032073A80D0064E10320E6
:1046100060A80D00F0B5384C384885B000F0BEFCFD
:104620002378013B092B63D8DFE803F0050F193C21
:10463000626262625364FFF741FF08B1022300E047
:1046400009232370FFF79EFE35E0FFF7E9FD08B16F
:10465000032300E009232370FFF794FE2BE0284E8C
:10466000284D377877B9FFF78DFE2B78264A2749F2
:104670008DF8007002A8FFF793FD03A8FFF78DFEE9
:1046800001233370FFF77EFE00222B788DF8002087
:104690001E491F4A02A8FFF783FD03A8FFF77DFE0E
:1046A000042326E0FFF732FE08B1052300E00923CA
:1046B0002370FFF767FE134B16491B7800228DF815
:1046C000002002A8144AFFF76BFD03A8FFF765FE60
:1046D00010E0FFF757FE0B4B10491B7800228DF8B6
:1046E000002002A80E4AFFF75BFD03A8FFF755FE66
:1046F0000A23237005B0F0BD61E10320D4E103205B
:1047000065E1032064E1032085A80D009EA80D004B
:10471000AAA80D007EA80D0094E1032041A80D0079
:10472000C2A80D0070B5046843681426054606FB50
:104730000346A64204D0204603F07BF81434F8E781
:10474000286800F09DFF284670BD8842F8B50646EF
:104750000C46154616D9904215D2A2F114056C1AD2
:10476000A1F114070444AF421CD02CB129462046C5
:1047700003F04FF82B7C2374284603F05AF8143DBD
:10478000143CF0E70ED0AC420CD02EB1214630469E
:1047900003F03FF8237C3374204603F04AF81434C6
:1047A0001436F0E7F8BD2DE9F041002303604360C3
:1047B00083604E689E4204460F4624DD4FF0140885
:1047C00008FB06F000F054FF0546E0B194E806004F
:1047D00008FB0212FFF7B9FF206800F051FF2560C7
:1047E000A6603E687B6808FB0368464509D02DB18A
:1047F0003146284603F086F8337C2B741436143582
:10480000F3E77B6863602046BDE8F0812DE9F04165
:10481000324B334C8CB001271F70002500F0CCFCCC
:104820003048FFF757FC00950195029503F0ACFA6C
:104830006946804603A8FFF7B6FF264603A906A8E7
:10484000FFF7B1FF284B46F8043B06A909A8FFF77C
:10485000AAFF09AA1E21304602F08BFA09A8FFF729
:1048600061FF06A8FFF75EFF204B2360C4F820809D
:1048700003A8FFF757FF1E4B236003F085FA4FF4A0
:10488000165103F071FA1B4E01F020FF214602F091
:1048900003FA6846FFF746FF324617492046174C91
:1048A00003F0CAFB2946384600F016FE294620468A
:1048B00001F0E8FA32461249204603F0BDFB03F04E
:1048C00059FB104C0146204600F086F932460E494D
:1048D000204603F0B1FB0CB0BDE8F08164E1032099
:1048E00070E1032062E103200CA70D0068AC0D000D
:1048F00024A70D0058E10320BD410D0068E103200D
:10490000A35E0D00D4E1032023490D004020704731
:104910000020704780207047FF2070477047704725
:104920007047704710B51421044603F08AFB2046F7
:1049300010BD10B50821044603F083FB204610BDCE
:1049400010B50821044603F07CFB204610BD10B5CD
:104950001C21044603F075FB204610BD2DE9FF41E4
:104960000368DB680546984710220146684604F054
:10497000F9FA2B6828469B6898470024074620468A
:10498000BC420ED23E1B102E2B6828BF1026D3F837
:1049900018806A46334621462846C04708B1344449
:1049A000EEE704B0BDE8F0810368C9B29B68184720
:1049B0000EB400B58CB00DAA202352F8041B03924C
:1049C0008DE8060004930168002304AA1E200593C5
:1049D00000F05AFD0CB05DF804EB03B07047002303
:1049E00001228372C272027342738373C3730374AE
:1049F00043747047012208B542710222827103227A
:104A0000064BC27104220360027200230722037165
:104A100042724374FFF7E3FF08BD00BF44AA0D00D4
:104A200003090A2200F00F0002FB0300704708B5DB
:104A3000807AFFF7F5FF00F5FA6008BDC07A00F054
:104A40001F00FFF7EDBF007B00F03F00FFF7E8BF5E
:104A500008B5817B4A060DD501F01F00FFF7E0FF86
:104A60008B0603D50C280BD00C3008BD0C2808BFD2
:104A7000002008BD01F03F00BDE80840FFF7D0BFAF
:104A800008BDC07B00F07F00FFF7CABF007C00F0CC
:104A90007F00FFF7C5BF10B58AB02422002104466D
:104AA00001A804F05FFA2046FFF7C1FFA0F26C7086
:104AB00006902046FFF7C2FF013805902046FFF719
:104AC000C2FF04902046FFF7C3FF03902046FFF784
:104AD000D8FF02902046FFF7D9FF019001A804F00B
:104AE00025FB0AB010BD0A2290FBF2F393FBF2F112
:104AF00002FB113102FB130343EA0110C0B27047FD
:104B0000642310B5044691FBF3F000FB1310FFF78C
:104B1000EAFFA07210BD10B504460846FFF7E3FF98
:104B2000E07210BD10B504460846FFF7DCFF237B9A
:104B300023F03F031843207310BD10B50446481CF2
:104B4000FFF7D1FF637B23F007031843607310BDA9
:104B500010B504460846FFF7C6FFA07310BD10B598
:104B600004460846FFF7BFFFE07310BD10B50446CA
:104B70000846FFF7B8FF237C23F07F031843207417
:104B800010BD37B5044602A840F8041D04F022F811
:104B9000054641692046FFF7B3FF296920460131E8
:104BA000FFF7B9FFE9682046FFF7BCFFA969204677
:104BB000FFF7C3FFA9682046FFF7CAFF69682046D0
:104BC000FFF7CDFF29683B29A8BF3B212046FFF70F
:104BD000CDFF03B030BD0000084A0260002202721F
:104BE00042720122827203460322C272044A416069
:104BF0001861C260034A98614261704754AA0D006F
:104C000024A90D0000A90D002DE9F84F05460F4617
:104C100091469A4600240A9B9C4230D239466868E5
:104C200001F098F909EB04016868FFF7BDFE002167
:104C3000686801F093F90646D8B90A9B68681A1BA0
:104C4000202A28BF20220123D2B2394601F076F96A
:104C50000AEB040883464646C8EB06039B4506D983
:104C6000686803685B69984706F8010BF4E75C44E1
:104C7000D1E7024604490548FFF79AFE00E0002606
:104C80003046BDE8F88F00BF9EA90D00F0E103207B
:104C90001FB5012300930A4603AB6F21FFF7B4FF52
:104CA00010B99DF80C0000E0002005B05DF804FB91
:104CB00008B50321FFF7ECFFC0F3401008BD7FB536
:104CC0001E46002B0CBF072306230093144602AB9D
:104CD0000A466F21FFF798FF0546D8B99DF80830BE
:104CE00023749DF80930E3739DF80A30A3739DF88F
:104CF0000B3063739DF80C3023739DF80D30E37215
:104D00001EB99DF80E30A37204E002F037FFFFF7E2
:104D1000EAFEA072284604B070BD38B500230C46E8
:104D20000A4619460546FFF7CAFF28B9A37A1BB100
:104D30002846FFF7BDFF00B9002038BD10B586B08A
:104D4000044601A8FFF756FE01A92046FFF7E5FF3C
:104D500010B101A8FFF79FFE06B010BD30B50446A4
:104D600085B0406801F0E4F802F0E0FEC0B9E37AF3
:104D70009B0715D52046FFF7E1FF054680B102F0FD
:104D800018FE094B09491B682A46684602F09CFE3A
:104D90000748009A0749FFF70BFE684602F049FDF5
:104DA0000123237205B030BDA0E0032080E403207E
:104DB000F0E10320B8A90D0008B5FFF7BFFF0030F0
:104DC00018BF012008BD2DE9F34101EB03081E4681
:104DD00003689B6804460D461746984780450AD8E5
:104DE00000963B46EAB257216068FFF70DFFB0FA24
:104DF00080F0400900E0002002B0BDE8F0812DE91C
:104E0000F34101EB03081E4603689B6805460C4608
:104E10001746984780450CD804F1200200963B467F
:104E2000D2B26F216868FFF7EFFEB0FA80F0400958
:104E300000E0002002B0BDE8F08100002DE9F84F4D
:104E40000746894692469B4600240A9B9C4228D2EC
:104E50004946786801F07EF80AEB04017868FFF7AC
:104E6000A3FD0A9B1E1B1F2E0BEB040828BF1F2649
:104E70004546786815F8011B026892689047C8EBB0
:104E80000502B242F5D30121786801F067F80546C2
:104E900028B1024605490648FFF78AFD02E034447E
:104EA000D3E700252846BDE8F88F00BFCDA90D0047
:104EB000F0E103201FB5137C8DF80830D37B8DF80B
:104EC0000930937B8DF80A30537B8DF80B30137BC0
:104ED0008DF80C30D37A8DF80D30937A8DF80E3032
:104EE000072300930A4602AB6F21FFF7A7FF05B027
:104EF0005DF804FB10B586B0044601A8FFF77AFD03
:104F000001A8FFF73EFE9DF81430A27A63F07F03FC
:104F10008DF814309DF8113012B143F0080301E010
:104F200023F0080301AA002120468DF81130FFF775
:104F3000C1FFB0FA80F0400906B010BD7FB506464B
:104F400002F0F4FD0446B8B102F011FE0546014638
:104F50003046FFF7CFFF0C4B0C491B682A4604462E
:104F6000684602F0B1FD009A09490A48FFF720FDA2
:104F7000684602F05EFC03E007490648FFF718FDAB
:104F8000204604B070BD00BFA0E0032080E40320F1
:104F9000E8A90D00F0E10320FEA90D0037B5457A20
:104FA00004468DB902F0C2FD70B102A8294640F84E
:104FB000045D00F0FDFA38B1E37ADB0702D5204644
:104FC000FFF7BCFF0123637203B030BD2DE9F3414D
:104FD00001EB03081E4603689B6805460C4617460E
:104FE000984780450CD804F1200200963B46D2B287
:104FF0006F216868FFF722FFB0FA80F0400900E0F7
:10500000002002B0BDE8F08138B5054632245721B2
:10501000686800F09FFF0121686800F09FFF08B1F9
:10502000013CF4D138BD00002DE9F0410546D71808
:105030001446C2EB0108BC421ED05721686800F03C
:1050400089FF08EB04016868FFF7AEFC686814F894
:10505000011B03689B6898470121686800F07EFF88
:10506000064628B1024606490648FFF7A1FC04E0BF
:105070002846FFF7C9FFDEE700263046BDE8F0818D
:1050800013AA0D00F0E103202DE9F04101EB030824
:105090001E4603689B6804460D46174698478045A0
:1050A0000AD833463A46E9B26068FFF7BDFFB0FA66
:1050B00080F04009BDE8F0810020BDE8F0810000EB
:1050C00008B500F079F8024B024A1A6008BD00BF2B
:1050D000F0E1032034AA0D0008B5024B1B689B6861
:1050E000019308BD4802030008B5024B1B681B6909
:1050F000019308BD4802030008B5024B1B685B69B9
:10510000019308BD4802030008B5024B1B681B6BE6
:10511000019308BD4802030008B5024B1B685B6C95
:10512000019308BD4802030008B5024B1B68DB6C05
:10513000019308BD4802030008B5024B1B685B6D74
:10514000019308BD4802030008B5024B1B685B6869
:10515000019308BD1802030008B5024B1B68DB6809
:10516000019308BD1802030008B5024B1B685B6978
:10517000019308BD1802030008B5024B1B68DB69E8
:10518000019308BD1802030008B5024B1B681B6A97
:10519000019308BD1802030008B5024B1B689B6D04
:1051A000019308BD1802030008B5024B1B68DB6DB4
:1051B000019308BD1802030008B5024B1B681B6869
:1051C000019308BD2C02030008B5024B1B685B6805
:1051D000019308BD2C02030008B5024B1B689B68B5
:1051E000019308BD2C02030008B5024B1B68DB6865
:1051F000019308BD2C02030008B5024B1B681B6914
:10520000019308BD2C02030008B5024B1B689B6983
:10521000019308BD2C02030008B5024B1B68DB6933
:10522000019308BD2C02030008B5024B1B681B6BE1
:10523000019308BD2C02030008B5024B1B68DB6814
:10524000019308BD2802030008B5024B1B685B6987
:10525000019308BD2802030008B5024B1B689B6937
:10526000019308BD2802030008B5024B1B68DB69E7
:10527000019308BD2802030008B5024B1B681B6A96
:10528000019308BD2802030008B5024B1B685B6A46
:10529000019308BD2802030008B5024B1B689B6AF6
:1052A000019308BD2802030008B5024B1B68DB6AA6
:1052B000019308BD2802030008B5024B1B681B6B55
:1052C000019308BD2802030008B5024B1B685B6B05
:1052D000019308BD2802030008B5024B1B681B6C34
:1052E000019308BD2802030008B5024B1B689B6CA4
:1052F000019308BD2802030008B5024B1B68DB6C54
:10530000019308BD2802030008B5024B1B685B69C6
:10531000019308BD6402030008B5024B1B689B683B
:10532000019308BD6802030008B5024B1B68DB68E7
:10533000019308BD6802030008B5024B1B68DB69D6
:10534000019308BD3002030008B5024B1B681B6ABD
:10535000019308BD3002030008B5024B1B681B68AF
:10536000019308BD3C02030008B5024B1B689B6813
:10537000019308BD3C02030008B5024B1B68DB68C3
:10538000019308BD3C02030008B5024B1B681B6972
:10539000019308BD3C02030008B5024B1B685B6922
:1053A000019308BD3C02030008B5024B1B689B69D2
:1053B000019308BD3C02030008B5024B1B68DB6982
:1053C000019308BD3C02030008B5024B1B681B6A31
:1053D000019308BD3C02030008B5024B1B689B6AA1
:1053E000019308BD3C02030008B5024B1B68DB6A51
:1053F000019308BD3C02030008B5024B1B681B6803
:10540000019308BD4C02030008B5024B1B685B68A2
:10541000019308BD4C02030008B5024B1B689B6852
:10542000019308BD4C02030008B5024B1B681B69C1
:10543000019308BD4C02030008B5024B1B685B6971
:10544000019308BD4C02030008B5024B1B689B6921
:10545000019308BD4C02030008B5024B1B68DB69D1
:10546000019308BD4C02030008B5024B1B681B6A80
:10547000019308BD4C02030008B5024B1B685B6B2F
:10548000019308BD6002030008B5024B1B685B6D09
:10549000019308BD6002030008B5024B1B68DB6E78
:1054A000019308BD6002030008B5024B1B681B6F27
:1054B000019308BD6002030008B5024B1B681B681E
:1054C000019308BD2002030008B5024B1B685B680E
:1054D000019308BD2002030008B5024B1B68DB6A7C
:1054E000019308BD2002030008B5024B1B68DB6C6A
:1054F000019308BD2002030008B5024B1B685B6DD9
:10550000019308BD2002030008B5024B1B689B6D88
:10551000019308BD2002030008B5024B1B68DB6D38
:10552000019308BD2002030008B5034B1B68D3F8A4
:105530008830019308BD00002002030008B5034B2A
:105540001B68D3F89430019308BD000020020300CB
:1055500008B5024B1B681B68019308BD4402030099
:1055600008B5024B1B689B68019308BD4402030009
:1055700008B5024B1B68DB68019308BD44020300B9
:1055800008B5024B1B685B69019308BD4402030028
:1055900008B5024B1B681B6A019308BD4402030057
:1055A00008B5024B1B681B6B019308BD4402030046
:1055B00008B5024B1B685B6B019308BD44020300F6
:1055C00008B5024B1B68DB6B019308BD4402030066
:1055D00008B5024B1B685B68019308BD40020300DD
:1055E00008B5024B1B689B68019308BD400203008D
:1055F00008B5024B1B68DB68019308BD400203003D
:1056000008B5024B1B681B69019308BD40020300EB
:1056100008B5024B1B685B69019308BD400203009B
:1056200008B5024B1B689B69019308BD400203004B
:1056300008B5024B1B68DB69019308BD40020300FB
:1056400008B5024B1B681B6A019308BD40020300AA
:1056500008B5024B1B681B6B019308BD4002030099
:1056600008B5024B1B685B6B019308BD4002030049
:1056700008B5024B1B681B68019308BD1C020300A0
:1056800008B5024B1B685B68019308BD1C02030050
:1056900008B5024B1B689B68019308BD1C02030000
:1056A00008B5024B1B681B69019308BD1C0203006F
:1056B00008B5024B1B689B69019308BD1C020300DF
:1056C00008B5024B1B68DB69019308BD1C0203008F
:1056D00008B5024B1B681B6A019308BD1C0203003E
:1056E00008B5024B1B685B6A019308BD1C020300EE
:1056F00008B5024B1B68DB6A019308BD1C0203005E
:1057000008B5024B1B681B6B019308BD1C0203000C
:1057100010B5836804460BB902F0ADFCC368984726
:10572000A3681BB10322214620469847204610213A
:10573000BDE8104002F085BC10B5036804469B68C4
:105740009847A368013BA3602BB923682046DB6818
:10575000BDE81040184710BD0B68036013B15A68CC
:1057600001325A60704738B50C6803689C420546A0
:105770000CD014B1636801336360286828B14368B2
:10578000013B43600BB9FFF7D7FF2C60284638BDBB
:10579000024800230360FFF7BFBC00BFF4E1032011
:1057A000002211464068FFF72BBF002211464068D7
:1057B000FFF746BF002211464068FFF751BF0022A5
:1057C0004068FFF745BF002281F001014068FFF704
:1057D0002FBF00231A4619464068FFF721BF002358
:1057E0001A4619464068FFF713BF00221146406869
:1057F000FFF7F6BE002202214068FFF7F9BE002342
:105800001A464068FFF7E4BE38B5084C28252A46FA
:105810000021204603F0A6FB4FF0FF336360044BEA
:10582000258004225A60034A1A6038BD00E2032032
:10583000F8E1032064AA0D0070470020704710B5FE
:105840001021044602F0FDFB204610BD08B508B14A
:10585000FFF7F5FF08BD10B58368044613B10322B6
:1058600001469847204610BD0022026010B54FF651
:105870009C728280B1F9044084808A8002680C683E
:1058800004600A6010BD10B504460068FFF7F8FE1A
:10589000204610BD38B5C468F4B12378022B03D17B
:1058A00004F10C00FFF7EFFF656835B12846FFF7FC
:1058B000D2FF1021284602F0C4FBA56835B1284666
:1058C000FFF7C9FF1021284602F0BBFB2046142138
:1058D000BDE8384002F0B5BB38BD13B5044691E8C9
:1058E000050000234B600B602060626001A80193FB
:1058F0000093FEF752FD204602B010BDF7B50C46EE
:1059000002AD54F8043B45F8083D06460F4601A891
:105910002146FFF721FF29463046FFF7DEFF01A8A9
:10592000FEF73BFD2046FEF738FD3846082102F021
:1059300088FB304603B0F0BD13B50B46044603C8E0
:105940008DE8030093E8030084E803009DE803006A
:1059500083E8030002B010BD38B50023044603609D
:1059600010200D46FEF799FB28B1012343608360A8
:10597000024B0360C5602060204638BD98AA0D0028
:10598000826810B50AB902F076FBC368BDE8104022
:10599000184708B5006800F11001FFF7F1FF08BDD6
:1059A000826810B50AB902F066FBC368BDE8104012
:1059B000184708B5006800F11001FFF7F1FF08BDB6
:1059C00038B5002383608B6804460D462BB1022254
:1059D0009847EB68E360AB68A360204638BD0000E1
:1059E000F0B589B004686846FFF73EFF00238DF8E4
:1059F00008304FF00202D4E84F3F002B03D1C4E837
:105A0000412F0029F7D102D08DF8083063E014F15E
:105A10000C0503D069462846FFF726FFBFF35F8FCA
:105A200001236370002004F10803BFF35F8F53E884
:105A3000006F43E80002002AF9D1BFF35F8F002E08
:105A400049D0FFF751FD20B129463046FFF798FFB6
:105A50003AE0314602A8FFF7B3FFE068B4F910500E
:105A600008B103F027FD06901020ADF81C50FEF79A
:105A700014FB0546E8B1002787601820FEF70DFBF0
:105A8000044688B10146876002A8FFF755FF049BD2
:105A9000A268A360059B049206A9E268E36004F192
:105AA00010000592FFF7E0FE0D4BEB600D4B2C60F4
:105AB000AB6006A8FFF7E7FE02A8FFF7CCFE0022C6
:105AC00029460948FFF718FD3046FFF7C4FE1021AC
:105AD000304602F0B6FA6846FFF7D5FE09B0F0BDD1
:105AE00093590D00095C0D0011570D002DE9F04F81
:105AF0008BB006460F46904699469DF850A0FFF79A
:105B00003FFD07AD834630BB4FF62E73059005A9C8
:105B10002846ADF81830FFF7A7FE1420FEF7BDFAAF
:105B2000044658B10223037001234370C0F804B047
:105B3000C0F808B029460C30FFF796FE30462146E3
:105B400040F8044BFFF708FF2846FFF79CFE05A826
:105B5000FFF799FE52E000240C2314206C60AC6027
:105B60000793FEF79AFA014618B104704470446036
:105B7000846004A80391FFF7EFFE224B08930820EE
:105B8000FEF78BFA044628B1039B40F8043B04A9B6
:105B9000FFF7E2FD00955FFA8AF34A464146384630
:105BA0000994FFF7F5FC20B9039B5B7803F0FF0233
:105BB00083B1039B059304A906A8FFF7CDFD05A9B2
:105BC0003046FFF78AFE06A8FEF7E7FB04A8FEF7BB
:105BD000E4FB13E04FF69C7305A903A80592ADF80A
:105BE0001830FFF7FDFE05A8FFF74DFE05A809993F
:105BF000FFF784FE06A8FEF7D0FBDAE730460BB0CD
:105C0000BDE8F08F795D0D00022AF8B5044606D094
:105C1000032A17D0012A22D10B6803601FE0182045
:105C20000E68FEF73AFA054650B13146FFF7C8FE56
:105C30003069B6F9147008B103F03CFC2861AF82FA
:105C400025600CE0046854B104F11000FFF71BFE5E
:105C50002046FFF700FE1821204602F0F2F900204E
:105C6000F8BD38B5002383608B6804460D462BB120
:105C700002229847EB68E360AB68A360204638BD1A
:105C8000022A70B5044606D0032A11D0012A18D181
:105C90000B68036015E014200E68FEF7FEF9054658
:105CA00020B13146FFF7DDFF337C2B74256008E01F
:105CB000046834B12046FFF7CEFD1421204602F0DF
:105CC000C0F9002070BD0000F0B5002387B00C467D
:105CD000BFF35F8F50E8006F40E80032002AF9D12F
:105CE000BFF35F8F002E3FD01846FFF7FDFB07463E
:105CF00020B121463046FFF753FE2EE0314601A881
:105D0000FFF7AFFF23788DF814301020FEF7C5F9A8
:105D10000546D0B187601420FEF7BFF9044678B17C
:105D20008760014601A8FFF707FE039BA268A360F6
:105D3000049B0392E268E3609DF81430049223749C
:105D40000A4BEB600A4B2C60AB6001A8FFF783FDA8
:105D5000002229460748FFF7CFFB3046FFF77BFDBF
:105D60001021304602F06DF907B0F0BDB3590D00B7
:105D7000815C0D0011570D0030B585B004460D460D
:105D800068461146FFF7BAFD7CB124B228460DB132
:105D900003F090FB029002A96846ADF80C40FFF7B3
:105DA0001FFE02A8FFF76FFD1DE000988DF8084068
:105DB0004FF00102D0E84F3FA34203D1C0E8412F8A
:105DC0000029F7D102D08DF808300CE010F10C0159
:105DD0004FF0010318BF0373BFF35F8F043000F867
:105DE000033CFFF771FF01A8FEF7D7FA05B030BDFD
:105DF000002211464068FFF723BC0022114640688C
:105E0000FFF72EBC00224068FFF722BC002281F081
:105E100001014068FFF70CBC00231A461946406890
:105E2000FFF7FEBB00231A4619464068FFF7F0BB98
:105E3000002211464068FFF7E3BB0022114640688C
:105E4000FFF7CEBB002202214068FFF7D1BB002341
:105E50001A464068FFF7BCBB024B03225A60024A55
:105E60001A60704728E20320B4AA0D00006800F011
:105E700080B810B50446016002710AB1FFF7F6FF61
:105E8000204610BD38B504460D4602F093F82A4668
:105E900001462046FFF7EDFF204638BD006800F0C0
:105EA00071B810B5037904460BB1FFF7F7FF204630
:105EB00010BD7047F8B5064615460C468F18BC4213
:105EC00006D0336814F8011B9B6830469847F6E704
:105ED0002846F8BD0022007CFFF7CEB90021007CE7
:105EE000FFF7D2B90021007CFFF7D6B90021007C72
:105EF000FFF7DAB90021007CFFF7DEB910B51421F5
:105F0000044602F09EF8204610BD000010B504467D
:105F10004FF47A730846A3600021044B207461603B
:105F20002360FFF7D9F9204610BD00BFE8AA0D0095
:105F300000231A461946007CFFF77EB913B50024EA
:105F4000007C0094FFF780F9C0B202B010BD0123BD
:105F5000FFF7F4BF0022007CFFF77EB90022007C2F
:105F6000FFF782B90121FFF7F9BF0021007CFFF79D
:105F7000ABB908B50021007CFFF7B6F9B0FA80F0A4
:105F8000400908BD08B50021007CFFF7B5F9B0FA5B
:105F900080F0400908BD0047F0B585B01C460E46AC
:105FA00017460546FFF738F9002084424FF00403F6
:105FB00003908DF80C30A5BF9DF828308DF80E3079
:105FC000034603AB009332463B460649A8BF8DF813
:105FD0000D402846FFF718F9B0FA80F0400905B0E7
:105FE000F0BD00BF975F0D00704710B51821044643
:105FF00002F027F8204610BDF0B5037D062B8DB0CA
:106000000E4600F104074FF0000402D000F108052D
:1060100018E00CAD394605F8304D2F232A460A20EA
:10602000FFF772F9284603F075FF33680246DB6814
:106030002946304698470FE024B12E21304601F022
:106040003DFB044415F8011D0A22304601F072FBA5
:10605000BD420444F0D120460DB0F0BD10B5054B53
:106060000446112240F8043B002102F07BFF204649
:1060700010BD00BF10AB0D000346074A10B543F832
:10608000042B01F1100251F8044B43F8044B9142E8
:10609000F9D10A781A7010BD10AB0D0010B59DF83B
:1060A000084044EA032343EA024242EA016104232E
:1060B0004160037510BD37B50D788B784A78C97883
:1060C00000912946FFF7EAFF03B030BD00F110024E
:1060D000012312F8101C0129104604D152F8041CA7
:1060E00003EB410304E0022904BF52F8041C5B18CF
:1060F000013B02F11002ECD170470EB42DE9F041E2
:1061000087B000AF07F13404054654F8046B7C6097
:1061100023463246102107F10800FFF7E1FA0F2865
:1061200016D900F1080323F00703E846ADEB030D91
:106130003246411C234668467C60FFF7D1FA021EB6
:1061400004DD2B6869469B6828469847C54607E0EA
:1061500030B12B6802469B6807F108012846984732
:106160001C37BD46BDE8F04103B0704713B502AB24
:10617000026803F8011D946819460122A04702B085
:1061800010BD8368FBB11A78032A1AD8DFE802F041
:106190000417021D0520704702685B685268D05CD6
:1061A0002D2814D0A0F13003092B10D9742810D059
:1061B00066280ED0A0F16E03584258417047062061
:1061C000704700207047184670470420704703202E
:1061D00070470220704710B50446FFF7D2FF02282F
:1061E0000DD016D3042814D82268A36850685B68C1
:1061F0000A2200211844BDE8104003F041BF226884
:10620000A36852685B68D05CA0F17403584258419F
:1062100010BD002010BD10B5436904465BB1806815
:10622000E060013B1030A060206163612BB1FFF79B
:106230004DFFA06001E0184610BD012010BD10B553
:106240007D210446FFF792FF01232371204610BDF4
:1062500008B50379012B02D0022B02D008BD2C21F6
:1062600000E03A21FFF782FF08BD10B50446FFF7B2
:10627000EFFF20467B21FFF779FF002323712046A3
:1062800010BD000038B504460D46FFF7E1FF236856
:106290000449DB6820462A4698470123237120469B
:1062A00038BD00BF3FB00D0038B504460D46FFF7BE
:1062B000CFFF23680449DB6820462A46984701231C
:1062C0002371204638BD00BF2BAB0D00F8B50D463D
:1062D0001746222104462F44FFF748FF2A46294645
:1062E000BA4238D0164616F8015B222D03D05C2D39
:1062F00001D01F2D2DD82368521A9B68204698473D
:106300005C212046FFF732FF0C2D19D007D8092D4C
:106310000FD00A2D12D0082D14D162210AE0222DAF
:1063200005D05C2D03D00D2D0CD1722102E0294641
:1063300000E074212046FFF719FF09E06E21F9E71C
:106340006621F7E723680A49DB682A462046984712
:1063500031463246C4E7914204D02368521A9D6800
:106360002046A84722212046FFF700FFF8BD00BFC6
:1063700036AB0D0070B504460D461646FFF768FFB4
:10638000204632462946FFF7A1FF0223237120460B
:1063900070BD70B504460D461646FFF759FF2046FE
:1063A00032462946FFF792FF01232371204670BD34
:1063B00010B500230446036043601048A060E3600A
:1063C000D1B10B78032B06D0B3B9136858684B686A
:1063D000C35C6E2B08D0136858684B680344A360F5
:1063E0008B6849685B1AE3601146204651F8043B0C
:1063F00040F8043BFFF7B7F9204610BD25AC0D006F
:10640000002310B50446036043608360C3600361EA
:10641000436171B10B78012B0BD101F11003836043
:10642000CB684361114651F8043B40F8043BFFF749
:106430009AF9204610BD002310B50446036043605E
:10644000816031B1114651F8043B40F8043BFFF73D
:106450008AF9204610BD80680368DB6818477047DA
:1064600019B10B6808465B681847704719B10B688B
:1064700008465B681847704770477047704738B5E3
:1064800004460D4600682E2102F0F8FF2368C31A67
:106490002B6023B1037803B10130236820601846D4
:1064A00038BD10B50C21044601F0CBFD204610BDCF
:1064B00010B50421044601F0C4FD204610BD10B5FE
:1064C0000421044601F0BDFD204610BD38B50C4640
:1064D000054601F059FC84420DD001F0C9FB84420D
:1064E00005D101F0C5FBBDE8384001F0BABB21463B
:1064F0002846FFF7BBFF38BD08B502F0C9FFB0FA68
:1065000080F0400908BD38B5054608460C4603F042
:1065100001FD214602462846BDE83840FFF739BF55
:106520000068FEF701BE70B5044608460D4603F04C
:10653000F1FC2368024629462046DB68BDE870402E
:10654000184713B502AB026803F8011DD468194659
:106550000122A04702B010BD2DE9F04F4568076841
:1065600085B09146142255430193AB10194D029208
:106570005D438B463C460123002D039323DD029BA4
:106580006E1003FB06F004EB00084A46B8F804A0BE
:106590002058D14528BF5246594603F0C3FC039BFF
:1065A00048B9D14503D1019A13703546E4E78CBF51
:1065B0000120002000E0C00F0028F6D0AE1B08F13B
:1065C0001404013EF1E7E41B0248A410604305B047
:1065D000BDE8F08FCDCCCCCCF0B585B0036901918E
:1065E000067E13B309B304AF002347F8043D00F15E
:1065F0000C041D46394601A8FFF741FF0146A0B132
:1066000004AB039A03F8055D2046FFF7A5FF9DF84C
:106610000B3053B12368142404FB0034083434F9DC
:10662000023C002BA8BFDEB2E4E7304605B0F0BD67
:1066300010B5094C2368DB070BD42046FDF73EFD5F
:1066400038B12046FDF73FFD044A0549054801F0F1
:10665000F3FC044810BD00BF30E2032058E10320E2
:106660007B640D009CE0032010B5094C2368DB0718
:106670000BD42046FDF722FD38B12046FDF723FD5F
:10668000044A0549054801F0D7FC044810BD00BF85
:1066900060E2032058E1032079640D0098E00320B4
:1066A00038B5002504460560456085600561456193
:1066B000856140F8245FFEF72FFDFFF7B9FFE06129
:1066C000FFF7D2FF25732062204638BD10B50A4C73
:1066D0002368DB070ED42046FDF7F0FC50B10748D5
:1066E000FFF7DEFF2046FDF7EEFC054A05490348AB
:1066F00001F0A2FC014810BD34E2032038E203207F
:1067000058E10320376B0D000023024A0249034879
:10671000FEF7CABE196A0D00A9690D0031690D00A6
:1067200000231A4619461846FEF7BEBE73B502ACE2
:106730000E6951F8043B44F8083D054601A8FFF7EF
:106740000BF8224631462846FFF775FE01A8FDF7F3
:1067500024FE284602B070BD73B502AC8E6851F8B5
:10676000043B44F8083D054601A8FEF7F5FF224624
:1067700031462846FFF744FE01A8FDF70EFE2846E5
:1067800002B070BD73B502ACCE6851F8043B44F85A
:10679000083D054601A8FEF7DFFF224631462846A0
:1067A000FFF706FE01A8FDF7F8FD284602B070BD10
:1067B00030B58BB00D46014604A8FFF7CDFF04A805
:1067C000FFF729FDE8B104A96846FFF7DBFF0F4991
:1067D0000298FFF791FE044610B12C1C18BF01244B
:1067E00001A8FDF7DAFD002CE9D004A96846FFF7FF
:1067F0009DFF6846FFF7EFFC286001A8FDF7CDFD7F
:10680000DDE705A8FDF7C9FD0BB030BD84AB0D0079
:1068100037B50C4620461349154602F039FE40B9FB
:1068200001F0B2FA4FF4165101F09EFA01F0ACFA01
:1068300015E00D49204602F02BFE78B902A94FF46D
:10684000165341F8043D2846FFF7B2FF01F010FA55
:10685000019901F003FA01F00BFA00E0002003B007
:1068600030BD00BF89AB0D0090AB0D0070B5046862
:1068700043681426054606FB0346A64205D004F1EC
:106880000800FFF7F3FF1434F7E72868FEF7F8FE77
:10689000284670BD70B504684368054604EB0316CE
:1068A000A64204D0204600F0C4FF1034F8E7286860
:1068B000FEF7E6FE284670BD10B504460C30FFF723
:1068C000D5FF2046FFF7E6FF204610BD10B5044B6C
:1068D000044640F8043BFFF7EFFF204610BD00BF21
:1068E0000CA70D0010B50446FFF7F0FF2046242149
:1068F00001F0A7FB204610BD10B5034B0360044612
:10690000FFF7E4FF204610BD5CAB0D0010B5044658
:10691000FFF7F2FF2046242101F093FB204610BD33
:1069200010B5036804461868FEF706FC204610BD43
:106930002DE9F04F9B461B4B5B68C3F3080385B002
:1069400082460E46904653BBFFF7C0FE04462430F5
:106950000390FFF7E5FD237BF3B90123237325683B
:106960006368F6B205EB83094D4513D055F8047BF7
:106970004146381DFFF730FE8642F5D33B68CDF81F
:1069800000B09B689E46384643463246514677469D
:10699000B847E9E70023237303A8FFF7C1FF05B059
:1069A000BDE8F08F00ED00E02DE9F74F9946194B57
:1069B0005B68C3F3080307468846164633BBFFF7F8
:1069C00085FE044624300190FFF7AAFD237BD3B94E
:1069D00001232373256863685FFA86FB05EB830A4E
:1069E00055450ED055F8046B4946301DFFF7F4FDB0
:1069F0008345F5D333684246DB68394630469847CD
:106A0000EEE70023237301A8FFF78AFF03B0BDE878
:106A1000F08F00BF00ED00E02DE9F341154B5B68FE
:106A2000C3F3080304468846FBB9FFF74FFE06464A
:106A300024300190FFF774FD96E8A000462605EB90
:106A40008707AF4207D101A8FFF76AFFB442B4BF7E
:106A5000002001200AE055F8040B41460430FFF7FE
:106A6000BBFD8642A8BF0646EBE7002002B0BDE8AA
:106A7000F08100BF00ED00E070B503684268044695
:106A800003EB82029A4218460ED006680D68AE42A9
:106A900003F10403F6D1011D521A02F048FA6368AB
:106AA000013B6360012070BD002070BD1FB504462E
:106AB000243001910390FFF733FD01A92046FFF731
:106AC000DBFF20B903A8FFF72BFF04B010BD6368FC
:106AD000002BF7D1FFF724FEF4E770B50569436991
:106AE0001826044606FB0356AE4215D005F11001E8
:106AF0002046FFF7C1FF63680BB9FFF711FEE0699D
:106B000029690368DB689847696919B1206A0368D5
:106B1000DB6898471835E7E725696369182606FB9F
:106B20000356B54204D0284600F083FE1835F8E736
:106B30000023636170BD73B5044602ADFFF7F0FD3D
:106B400004F1240045F8040DFFF7EAFC2046FFF7A6
:106B5000C4FF2846FFF7E4FE25696369182606FB93
:106B60000356B54204D0284600F063FE1835F8E716
:106B70002069FEF785FD2068FEF782FD204602B001
:106B800070BD03680A6802600B6043684A6842602F
:106B90004B6083688A6882608B60704710B5002301
:106BA0000446036043608360FFF7EBFF204610BD9F
:106BB0008842F8B50446164625D9904224D2551A83
:106BC000143D2C44A1F11407A2F10C050026A5F1F7
:106BD00008039F4237D084B155F8083C236035F84C
:106BE000043CA38035F9023CE380A660E6602661A0
:106BF000294604F10800FFF7C4FF2846FFF736FED8
:106C0000143C143DE3E71ED001F108050027A5F16F
:106C100008039E4217D084B155F8083C236035F82C
:106C2000043CA38035F9023CE380A760E76027615C
:106C3000294604F10800FFF7A4FF2846FFF716FED7
:106C400014341435E3E7F8BDF8B5456883689D4210
:106C500004460E4617460EDB0135002D05DDA90062
:106C60000068FEF715FD20B9F8BD0068FEF708FDC5
:106C700000202060A5602568626805EB860105EBB1
:106C80008202521A081D02F052F945F82670636814
:106C9000013363600120F8BD37B5044624300D464A
:106CA0000190FFF73DFC2368616803EB810083429C
:106CB0001A4609D01268AA4203F10403F7D101A8C9
:106CC000FFF72EFE00250EE02A462046FFF7BCFF08
:106CD00005460028F3D06368012B01D1FFF714FDAE
:106CE00001A8FFF71DFE284603B030BD8842F8B565
:106CF00006460C46154614D9904213D2A2F110054F
:106D00006C1AA1F110070444AF4218D01CB12946F7
:106D1000204600F07EFD284600F08BFD103D103C23
:106D2000F2E70CD0AC420AD01EB12146304600F04A
:106D300070FD204600F07DFD10341036F2E7F8BDFE
:106D400070B50E1E05460BDD3001FEF791FC0446C2
:106D500070B195E8060001EB0212FFF7C7FF00E0F3
:106D600000242868FEF78CFC2C60AE60012070BD0A
:106D700070BD2DE9F04F002395B092464622036086
:106D800043608360C3600361436102760291DAF875
:106D9000041008939942054609930A9340F39D8095
:106DA00008A8FFF7CDFF002840F097808EE021462D
:106DB0000BA800F02EFD0BA90FA8099E00F029FDDD
:106DC00009990A9B9942C0F2CE80013108A8FFF7C9
:106DD000B7FF002840F0C7800FA800F02AFD0BA8DD
:106DE00000F027FD1434A742E1D100260B960C9643
:106DF0000D96B146099B9E4280F2A8803301089A05
:106E0000D3580693002B00F09F8014237343CDF8D2
:106E10001C9001930BAC07A906A8FFF730FB0746AF
:106E2000002800F0918014AB014603F8399D079AC1
:106E30002046FFF791FB9DF817800090B8F1000FF6
:106E400053D1BDF81C30ADF840304FF6FF730F97AB
:106E5000ADF84230CDF84480CDF84880CDF84C8074
:106E60006768A3689F424FDA009BD4F800B061685E
:106E7000142253430BEB030702FB01B207F114008A
:106E800039460393FFF794FEA7B1039B0F9A4BF883
:106E90000320BDF84030BB80BDF94230FB80C7F80D
:106EA0000890C7F80C90C7F8109011A907F10800D6
:106EB000FFF767FE63680133636011A8FFF7D6FC34
:106EC000B8F1000F11D00BA8FFF7D0FC08A8FFF70E
:106ED000E1FC284615B0BDE8F08FDAF80040DAF89A
:106EE0000430142707FB03477DE72368009A142426
:106EF00004FB0234069B1B7823BBDAF80030019AAE
:106F000013441B7CE3801DE00137002F0FDD1423A9
:106F100003FB07F00393FEF7ABFB834678B194E8DD
:106F20000600039B03FB0212FFF742FE00E0C3468C
:106F30002068FEF7A5FBC4F800B0A76094E74FF007
:106F40000108BAE7083466E7013653E708A928467E
:106F5000FFF717FE0BA905F10C00FFF712FE9DF8D5
:106F600008302B76AFE7089B099A03EB061603EB74
:106F70000212314606F11000FFF7B8FE1EB10FA94C
:106F8000304600F046FC099B0133099324E70000DA
:106F90007FB50446094B44F8043B05460E4601A85C
:106FA0001146FDF700FC01AA31462046FFF7E1FE3D
:106FB00001A8FDF7B7FB284604B070BD0CA70D0073
:106FC000F0B50F468BB02B49109C384616461D462F
:106FD00002F05EFA28BB002C49D0294601A8FFF731
:106FE000DDFD2549242001F037F80546B8B101A997
:106FF00004A8FFF7D3FD04A907A8FDF7D4FB07AA4F
:1070000031462846FFF7C4FF07A8FDF78BFB1B4B53
:107010002B602C6204A8FDF785FB194B2B6001A89F
:107020001FE01849384602F033FAF0B9FCB129469E
:1070300004A8FFF7B3FD1049242001F00DF8054620
:1070400070B104A907A8FDF7AEFB07AA3146284690
:10705000FFF79EFF07A8FDF765FB084B2B602C622E
:1070600004A8FDF75FFB284602E0002000E0204670
:107070000BB0F0BDDFAB0D0090AD0D0068AC0D00A6
:107080005CAB0D00E3AB0D00014B024A1A60704788
:1070900064E20320F4AB0D002DE9F047089DD0F821
:1070A000209004460E461746984600F06DFE814536
:1070B00005D15A4800F067FA002840F0AC802B79DF
:1070C0001B0705D56B69564A206A002100F034FB86
:1070D000B8F1000F0DD05B212046FFF732FA414690
:1070E0002046FFF720FA23684E49DB68022220463B
:1070F00098472B79D90725D5D5F808802F21404608
:1071000002F025FF08B100F1010841462046FFF7D3
:107110000AFA2B799A0709D53A212046FFF711FA86
:10712000EB68414A206A002100F006FB2B7913F03E
:10713000040F236818BF3D49DB6808BF3C490222A1
:10714000204698472B795B0718D529690A461346CC
:1071500013F8010B38B1202801D1194601E0282885
:1071600001D01A46F3E72368521ADB682046984795
:1071700023683049DB6804222046984700213846BE
:10718000FEF78AF901462046FFF7CDF92368284922
:10719000DB680222204698471EB131462046FFF7A1
:1071A000C2F92B7913F0300F2DD023682249DB6808
:1071B0002046022298472B79D8060BD523681F4911
:1071C000DB68072220469847AB691D4A206A0021E8
:1071D00000F0B2FA2B79990611D5DA0605D52368A5
:1071E0001249DB6802222046984723681549DB686C
:1071F00020460A229847E9692046FFF794F95D2165
:107200002046FFF79EF923680F49DB6820460222DB
:10721000BDE8F0471847BDE8F08700BF3CE4032015
:10722000F8AB0D00FFAB0D003FB00D0002AC0D0040
:1072300007AC0D0005AC0D000AAC0D000DAC0D0047
:1072400015AC0D0018AC0D0023AC0D002DE9F0437A
:1072500085B0D0F820800C9C06460F4691461D460E
:1072600000F092FD804505D14A4800F08CF90028D5
:1072700040F08C80336A484A01924FF0000801A820
:1072800003938DF80880FEF7F0FF41464846FEF76D
:1072900003F942498046012201A8FFF76BF84146F5
:1072A000FFF731F93FB13E49012201A8FFF762F82B
:1072B0003946FFF728F93DB13A49012201A8FFF705
:1072C00059F82946FFF71FF92379DF070ED5A5687E
:1072D0002F21284602F03BFE00B1451C3249012215
:1072E00001A8FFF747F82946FFF70DF923799D0715
:1072F00007D52E49022201A8FFF73CF8E168FEF706
:10730000C1FF2379580716D525692F463B4613F848
:10731000012B3AB1202A01D11D4601E0282A01D0D3
:107320001F46F3E70222224901A8FFF723F87A1B40
:107330002946FFF72EF82379190707D51D490122A1
:1073400001A8FFF717F86169FEF7AEFF2379DA06A7
:1073500008D5042218490DEB0200FFF70BF8A169CC
:10736000FEF790FF23799B0607D51449062201A852
:10737000FFF700F8E169FFF7C6F801A8FEF75FFF25
:10738000306A0F4903680222DB68984705B0BDE800
:10739000F08300BF3CE4032044AB0D008EAB0D0036
:1073A000A1AB0D00A1B00D0050A70D0026AC0D0043
:1073B00029AC0D000FB10D002CAC0D0031AC0D004F
:1073C00023AC0D00002211464068FEF739B90022B7
:1073D00011464068FEF744B900224068FEF738B90C
:1073E000002281F001014068FEF722B900231A460D
:1073F00001214068FEF714B900231A461946406877
:10740000FEF706B9002211464068FEF7F9B80022DF
:1074100011464068FEF7E4B8002202214068FEF7FA
:10742000E7B800231A464068FEF7D2B838B50546DB
:1074300088B104684CB1A3681BB1032221462046E1
:1074400098471021204600F0FCFD28461421BDE895
:10745000384000F0F6BD38BD10B103685B681847CE
:10746000704710B503680446BBB15868FDF734FE99
:1074700078B923685A7C12B95868FDF735FE23683D
:107480005868FDF739FE20680023236028B1FFF714
:10749000CDFF206808B1FFF7C9FF204610BD0000EE
:1074A00038B50C4B03600446D0F8CC0108B1FCF7AA
:1074B000F8FDD4F8C45135B12846FFF7D2FF0421B6
:1074C000284600F0BEFDA06808B1FFF7C5FF2046C2
:1074D00038BD00BF98AC0D0038B50E4C0E4B236084
:1074E0000025022304F5E4706360A560C4F8C4516C
:1074F000C4F8C851FDF710FE084BC4F8CC5184F80D
:10750000D05123602046064A0649BDE8384000F0C5
:1075100093BD00BF68E20320CCAC0D0098AC0D0019
:1075200058E10320A1740D0000231A464068FEF7BD
:107530004FB8002202214068FEF75AB800221146D7
:107540004068FEF74DB8002211464068FEF758B873
:1075500000231A4619464068FEF75AB800231A4617
:1075600019464068FEF75CB8002281F001014068CE
:10757000FEF75EB800224068FEF76AB800221146A6
:107580004068FEF76DB8002211464068FEF758B813
:107590002DE9F043002495B016460D460746FEF748
:1075A0005DFD214620220CA8009401F0DBFC402365
:1075B0000C9321466B460CAA3046FDF7B5FE0446F7
:1075C000002844D1024601216868FEF719F802211B
:1075D000804622466868FEF713F8009E81462146E1
:1075E000002E34D0002932D17368022B02D00A2B2E
:1075F00009D02AE0B8F1000F27D07169384604316C
:10760000FEF759FD20E0B9F1000F1ED07469112278
:1076100001A801F0A7FC06238DF8143001AD04F198
:1076200008031834186859682A4603C20833A3426D
:107630001546F7D101A906A807ADFEF71DFD0FCD30
:107640003C1D0FC42B6823700121F669C8E7009820
:10765000FDF762FE384615B0BDE8F083024B034AE1
:107660001A6000225A6070473CE40320CCAC0D0045
:10767000F8B506460D468F180024BD420CD033687D
:1076800015F8011B9B6830469847002801DB04442D
:10769000F3E7002C08BF04462046F8BD70B5054648
:1076A0000C46084649B102F035FC2B6802462146DB
:1076B0002846DB68BDE87040184770BD03689B68CA
:1076C000184738B50D210546FFF7F8FF0A21044693
:1076D0002846FFF7F3FF204438BD30B58BB00B468A
:1076E00000218DF82410012A98BF0A220DF12304ED
:1076F000B3FBF2F505FB123303F0FF03092B94BF34
:1077000030333733DBB2214604F801392B46002DE4
:10771000EED1FFF7C3FF0BB030BD10B42AB9036838
:107720005DF8044B9B68C9B21847D2B25DF8044BB0
:10773000FFF7D3BFFFF7F1BF0CB42DE9F04387B0DB
:1077400000AF07F13804054654F8049B3C600E4630
:1077500023464A461421381DFDF7C2FF132805D8D9
:10776000391D2846FFF79AFF044613E000F108038D
:1077700023F00703E846ADEB030D411C23464A46C0
:1077800068463C60FDF7ACFF69462846FFF786FF78
:107790000446C5461EB12846FFF793FF0444204621
:1077A0001C37BD46BDE8F04302B0704710B5044633
:1077B000FEF751F8204610BD0348044A044900234F
:1077C000836000F039BC00BF44E4032058E103208B
:1077D000AD770D00704710B51021044600F031FC64
:1077E000204610BD70B5084B0360044600250E46C8
:1077F00040F80C5FFDF788FC30462671FDF79CFDD4
:10780000A560204670BD00BF00AD0D000079FDF7FA
:107810009BBD0023036043608360037310B50C6855
:1078200004604C6844608C6884600B604B608B60C3
:1078300010BD10B504460068FDF722FF204610BDBC
:1078400010B50446006808B1FDF71AFF0023236055
:10785000A360636010BD38B504460D460068013171
:10786000FDF716FF10B184E82100012038BD10B5E6
:107870000368044613B143688B4207D22046FFF7E2
:10788000EAFF20B1A3680BB922681370012010BD74
:1078900070B50E46114604461546FFF7E8FF18B9C5
:1078A0002046FFF7CDFF09E02A463146A560206853
:1078B00001F032FB2268A3680021D154204670BD3C
:1078C00038B50023044603604360836003730D46AC
:1078D00039B1084602F01EFB294602462046FFF752
:1078E000D7FF204638BD884210B50B46044607D066
:1078F000096819B19A68FFF7CBFF01E0FFF7A0FF15
:10790000204610BD10B50023044603604360836029
:107910000373FFF7E8FF204610BD0000044B002072
:107920004FF6FF72187058809A80FDF7CDBD00BFEA
:1079300054E40320F0B5144B144F1E68144B064456
:1079400018683B6806449E428BB01BD00AA801AD64
:1079500040F8286D01F0E8F9436903F26C73436164
:1079600004460FCC0FC50FCC0FC5D4F800E0C5F806
:1079700000E001AD0FCD074C0FC40FCD0FC43E602A
:10798000C4F800E00BB0F0BD90E403208CE40320C9
:1079900088E403205CE4032008B50020FDF700FE26
:1079A00028B1FDF7EDFD80F00100C0B208BD012057
:1079B00008BD08B5FDF7E8FB002211461046BDE8FA
:1079C0000840FDF7A9BD000037B50E4B1B681944F0
:1079D0000D4B1B68044602A8194440F8041D01F031
:1079E000A3F901F0ADF8054602F094FA284400230B
:1079F00000F8013C29462046FFF762FF204603B00D
:107A000030BD00BF90E4032088E403202DE9F04757
:107A1000A4B014AC07468946204611461D4601F025
:107A200041FD204602F076FA804625B9244903A894
:107A300001F038FD13E03C2195FBF1F2002AB8BFBC
:107A4000524292FBF1F301FB132200924FF4616367
:107A50001C4A95FBF3F3102103A8FDF731FE2546E0
:107A60002E1B08F1FF3AB2451BD92B78252B16D1D6
:107A70006B787A2B13D103A802F04CFA804630447D
:107A8000C6EB0A02A91C204401F046FA424603A9AB
:107A9000284601F041FA204602F03CFA80460135C2
:107AA000DEE74B462246322107A801F07FFD07A9F9
:107AB0003846FFF705FF384624B0BDE8F08700BF21
:107AC00095B20D0008AD0D00F7B5054601921C46B4
:107AD00013B9124B1C682CB1114B2046196801F0E8
:107AE000D7FC20B901992846FFF76EFF13E00D4F30
:107AF000019A3B680C4E1A44336802A8134440F8BC
:107B0000043D01F011F93A683368014613442846F0
:107B10002246FFF77BFF284603B0F0BD84E4032034
:107B2000A0E0032090E4032088E4032010B50020A7
:107B3000FDF732FB044668B9FDF7BEFC01280BD106
:107B40002046FDF7E1FC38B9FFF726FF30B9FDF715
:107B500007FDF9E7012010BD002010BDFFF71CFF55
:107B60000020FDF719FB003018BF012010BD08B53B
:107B7000FFF7DCFFBDE80840FDF7FEBA08B5FFF7E8
:107B8000F6FFFFF7D7FE014B586908BD5CE4032000
:107B9000024B1A68024B1A60704700BFA0E0032036
:107BA00084E4032070474174704708B5007CFDF7FA
:107BB00013FC20EAE07008BD08B5007CFDF7E4FB8B
:107BC00020EAE07008BD08B5007CFDF7EDFB30EA67
:107BD000200028BF4FF0FF3008BD08B5007CFDF73E
:107BE000DBFB30EA200028BF4FF0FF3008BD007CEF
:107BF000FDF7E2BB10B51421044600F022FA20463E
:107C000010BD70B5457C04460E4625B9007CFDF7D5
:107C1000E3FB002805DD3146207CBDE87040FDF720
:107C2000ABBB284670BD000010B50446084611469F
:107C3000002262604FF47A72A260054A226001223B
:107C4000207462741A46FDF787FB204610BD00BF02
:107C500038AD0D000023007CFDF7C6BB0022FFF706
:107C6000F9BF007CFDF780BB007CFDF7ADBB0000D9
:107C700038B50C4D296811F0010411D12846FCF7E4
:107C80001DFA68B1084A094B09482146FFF7CCFFA5
:107C90002846FCF718FA074A0749054800F0CCF9CE
:107CA000034838BD2CE5032030E50320A8E4032079
:107CB00094E4032058E10320A57B0D004174704734
:107CC000704708B50021007CFDF7BEFB30EA2000BC
:107CD00028BF4FF0FF3008BD08B50121007CFDF73B
:107CE000B3FB30EA200028BF4FF0FF3008BD08B5D5
:107CF000007CFDF7A1FB20EAE07008BD08B5007C20
:107D0000FDF792FB20EAE07008BD007CFDF7ACBBFC
:107D100010B51421044600F094F9204610BD38B582
:107D20000446007C0D46FDF787FB002801DC607CE3
:107D300028B12946207CFDF78FFB20EAE07038BD92
:107D400010B50446002363604FF47A73A360054BBB
:107D5000236001230846217463741146FDF74CFB30
:107D6000204610BD68AD0D000022007CFDF74CBB25
:107D7000007CFDF751BB10B514220446002101F030
:107D8000F1F8204610BD000030B50E4D87B001A8B7
:107D9000FFF7F1FF296811F0010410D12846FCF724
:107DA0008DF960B101AA21460748FFF7C9FF2846AF
:107DB000FCF789F9054A0649034800F03DF90248F5
:107DC00007B030BDB4E50320B8E5032058E1032037
:107DD000C17C0D0008B50C4B33B1FFF7D5FF03682C
:107DE0001B699847002809DC084B63B1FFF740FF87
:107DF00003681B699847002803DC08BDAFF30080C7
:107E0000F2E7AFF3008008BD0000000000000000B2
:107E100008B5FFF7DFFFFDF7A7F9014B186008BDB4
:107E2000D0E5032007B5002300931A466FF07701D1
:107E3000FDF784FB03B05DF804FB000007B5438841
:107E40000A2B08D0502B09D1094B1B683BB103B05A
:107E50005DF804EB1847FFF7E5FF06E00023009309
:107E60001A466FF07701FDF769FB03B05DF804FB7C
:107E7000CCE5032010B5FDF767F9044601F0C8FA18
:107E8000074B13B12046AFF3008000210448FDF7F3
:107E900097FB00210348BDE81040FDF745BB00BF3C
:107EA000000000003D7E0D0010B504460F48FFF7AE
:107EB000ADFC28B1A4F10B03022B01D8002010BDAA
:107EC00000F058F8FEF751F808B1012CF6D9FFF789
:107ED000CFFEFFF7C9FE18B1A4F10903012BEDD9BC
:107EE000232C8CBF0020012010BD00BF04E603201E
:107EF000232838B504460D460AD8FF2908D0FFF7D5
:107F0000D3FF28B129462046BDE83840FDF764B9C3
:107F100038BD38B504460D46FDF766F9FF2810D088
:107F2000062804D84D2323FA00F0C30709D42046BD
:107F3000FFF7BAFF28B129462046BDE83840FDF7D3
:107F40005BB938BD0D2810B504469CBF0E34A4B2F1
:107F50002046FFF7A9FF50B103212046FDF734F971
:107F6000032804D12046BDE81040FDF75DB900208C
:107F700010BD000038B50B4D296811F001040FD178
:107F80002846FCF79BF858B121460748FDF7BEFF8D
:107F90002846FCF798F8054A0549034800F04CF8D4
:107FA000014838BDD4E50320ECE5032058E1032067
:107FB000B35E0D0010B50B4C2368DB070FD42046D1
:107FC000FCF77CF858B101210748FDF79FFF2046D8
:107FD000FCF779F8054A0649034800F02DF80248F5
:107FE00010BD00BF00E60320D8E5032058E10320C0
:107FF000B35E0D0070B50C4C0C4E0D4D00212046AB
:10800000FFF7F0FB20460B4C3246294600F014F8EF
:1080100001212046FFF7E6FB324629462046BDE80F
:10802000704000F009B800BF04E6032058E10320C7
:10803000D5770D0014E603200B460146184600F0E4
:10804000BBBDFCF72CB80000024B1868BFF35F8F74
:10805000704700BF24E6032010B5002814BF044673
:1080600001242046FDF704FB20B9FFF7EDFF08B11E
:108070008047F6E710BD08B5FDF73AFB244B1A68B8
:10808000D0075CBF01221A60224B1A68D1075CBF7F
:1080900001221A60204B1A68D2075CBF01221A60C5
:1080A0001E4B1A68D0075CBF01221A601C4B1A686D
:1080B000D1075CBF01221A601A4B1A68D2075CBF55
:1080C00001221A60184B1A68D0075CBF01221A609F
:1080D000164B1A68D1075CBF01221A60144B1A684C
:1080E000D2075CBF01221A60124B1A68D0075CBF2E
:1080F00001221A60104B1A68D1075CBF01221A6076
:108100000E4B1A68D2075CBF01221A60704700BF8D
:1081100054E6032050E603204CE6032048E6032003
:1081200044E6032040E603203CE6032038E6032033
:1081300034E6032030E603202CE6032028E6032063
:10814000184B1A68D1075CBF01221A60164B1A68D7
:10815000D2075CBF01221A60144B1A68D0075CBFBB
:1081600001221A60124B1A68D1075CBF01221A6003
:10817000104B1A68D2075CBF01221A600E4B1A68B6
:10818000D0075CBF01221A600C4B1A68D1075CBF94
:1081900001221A600A4B1A68D2075CBF01221A60DA
:1081A000704700BF74E6032070E603206CE60320EE
:1081B00068E6032064E6032060E603205CE6032013
:1081C00058E60320184B1A68D1075CBF01221A60D9
:1081D000164B1A68D2075CBF01221A60144B1A684A
:1081E000D0075CBF01221A60124B1A68D1075CBF2E
:1081F00001221A60104B1A68D2075CBF01221A6074
:108200000E4B1A68D0075CBF01221A600C4B1A682B
:10821000D1075CBF01221A600A4B1A68D2075CBF03
:1082200001221A60704700BF94E6032090E6032005
:108230008CE6032088E6032084E6032080E6032002
:108240007CE6032078E60320244B1A68D0075CBF45
:1082500001221A60224B1A68D1075CBF01221A6002
:10826000204B1A68D2075CBF01221A601E4B1A68A5
:10827000D0075CBF01221A601C4B1A68D1075CBF93
:1082800001221A601A4B1A68D2075CBF01221A60D9
:10829000184B1A68D0075CBF01221A60164B1A6887
:1082A000D1075CBF01221A60144B1A68D2075CBF69
:1082B00001221A60124B1A68D0075CBF01221A60B3
:1082C000104B1A68D1075CBF01221A600E4B1A6866
:1082D000D2075CBF01221A60704700BFC4E60320CA
:1082E000C0E60320BCE60320B8E60320B4E6032082
:1082F000B0E60320ACE60320A8E60320A4E60320B2
:10830000A0E603209CE6032098E6032081F00041CC
:1083100002E000BF83F0004330B54FEA41044FEA6A
:10832000430594EA050F08BF90EA020F1FBF54EA05
:10833000000C55EA020C7FEA645C7FEA655C00F0A1
:10834000E2804FEA5454D4EB5555B8BF6D420CDD72
:108350002C4480EA020281EA030382EA000083EAF5
:10836000010180EA020281EA0303362D88BF30BD95
:1083700011F0004F4FEA01314FF4801C4CEA1131EB
:1083800002D0404261EB410113F0004F4FEA03334A
:108390004CEA133302D0524263EB430394EA050FD5
:1083A00000F0A780A4F10104D5F1200E0DDB02FA44
:1083B0000EFC22FA05F2801841F1000103FA0EF2D8
:1083C000801843FA05F359410EE0A5F120050EF19E
:1083D000200E012A03FA0EFC28BF4CF0020C43FACF
:1083E00005F3C01851EBE37101F0004507D54FF0DC
:1083F000000EDCF1000C7EEB00006EEB0101B1F52C
:10840000801F1BD3B1F5001F0CD349085FEA300071
:108410004FEA3C0C04F101044FEA445212F5800F7C
:1084200080F09A80BCF1004F08BF5FEA500C50F119
:10843000000041EB045141EA050130BD5FEA4C0CFC
:10844000404141EB010111F4801FA4F10104E9D185
:1084500091F0000F04BF01460020B1FA81F308BF7C
:108460002033A3F10B03B3F120020CDA0C3208DD48
:1084700002F1140CC2F10C0201FA0CF021FA02F123
:108480000CE002F11402D8BFC2F1200C01FA02F193
:1084900020FA0CFCDCBF41EA0C019040E41AA2BFB8
:1084A00001EB0451294330BD6FEA04041F3C1CDA80
:1084B0000C340EDC04F11404C4F1200220FA04F0A0
:1084C00001FA02F340EA030021FA04F345EA03014A
:1084D00030BDC4F10C04C4F1200220FA02F001FA0C
:1084E00004F340EA0300294630BD21FA04F029468E
:1084F00030BD94F0000F83F4801306BF81F4801127
:108500000134013D4EE77FEA645C18BF7FEA655C99
:1085100029D094EA050F08BF90EA020F05D054EA6B
:10852000000C04BF1946104630BD91EA030F1EBF70
:108530000021002030BD5FEA545C05D14000494174
:1085400028BF41F0004130BD14F580043CBF01F567
:10855000801130BD01F0004545F0FE4141F470014D
:108560004FF0000030BD7FEA645C1ABF1946104628
:108570007FEA655C1CBF0B46024650EA013406BF29
:1085800052EA033591EA030F41F4002130BD00BFE8
:1085900090F0000F04BF0021704730B54FF48064A5
:1085A00004F132044FF000054FF0000150E700BF26
:1085B00090F0000F04BF0021704730B54FF4806485
:1085C00004F1320410F0004548BF40424FF0000172
:1085D0003EE700BF42004FEAE2014FEA31014FEAB5
:1085E00002701FBF12F07F4393F07F4F81F0605104
:1085F000704792F0000F14BF93F07F4F704730B573
:108600004FF4607401F0004521F0004120E700BF05
:1086100050EA010208BF704730B54FF000050AE08C
:1086200050EA010208BF704730B511F0004502D58D
:10863000404261EB41014FF4806404F132045FEA8F
:10864000915C3FF4DCAE4FF003025FEADC0C18BF34
:1086500003325FEADC0C18BF033202EBDC02C2F12A
:10866000200300FA03FC20FA02F001FA03FE40EABC
:108670000E0021FA02F11444C1E600BF70B54FF0BC
:10868000FF0C4CF4E06C1CEA11541DBF1CEA13559E
:1086900094EA0C0F95EA0C0F00F0DEF82C4481EA06
:1086A000030621EA4C5123EA4C5350EA013518BF26
:1086B00052EA033541F4801143F4801338D0A0FB13
:1086C00002CE4FF00005E1FB02E506F00042E0FBC0
:1086D00003E54FF00006E1FB03569CF0000F18BFC6
:1086E0004EF0010EA4F1FF04B6F5007F64F540746E
:1086F00004D25FEA4E0E6D4146EB060642EAC62101
:1087000041EA55514FEAC52040EA5E504FEACE2E6D
:10871000B4F1FD0C88BFBCF5E06F1ED8BEF1004F70
:1087200008BF5FEA500E50F1000041EB045170BDEC
:1087300006F0004646EA010140EA020081EA030130
:10874000B4EB5C04C2BFD4EB0C0541EA045170BD2C
:1087500041F480114FF0000E013C00F3AB8014F1A6
:10876000360FDEBF002001F0004170BDC4F10004EF
:10877000203C35DA0C341BDC04F11404C4F1200570
:1087800000FA05F320FA04F001FA05F240EA0200CB
:1087900001F0004221F0004110EBD37021FA04F601
:1087A00042EB06015EEA430E08BF20EAD37070BDBB
:1087B000C4F10C04C4F1200500FA04F320FA05F01A
:1087C00001FA04F240EA020001F0004110EBD3701C
:1087D00041F100015EEA430E08BF20EAD37070BD8C
:1087E000C4F1200500FA05F24EEA020E20FA04F365
:1087F00001FA05F243EA020321FA04F001F0004114
:1088000021FA04F220EA020000EBD3705EEA430E84
:1088100008BF20EAD37070BD94F0000F0FD101F0B3
:108820000046400041EB010111F4801F08BF013CEC
:10883000F7D041EA060195F0000F18BF704703F02A
:108840000046520043EB030313F4801F08BF013DB1
:10885000F7D043EA0603704794EA0C0F0CEA13556D
:1088600018BF95EA0C0F0CD050EA410618BF52EA27
:108870004306D1D181EA030101F000414FF000002D
:1088800070BD50EA410606BF1046194652EA43063B
:1088900019D094EA0C0F02D150EA013613D195EAAF
:1088A0000C0F05D152EA03361CBF104619460AD1F7
:1088B00081EA030101F0004141F0FE4141F4700101
:1088C0004FF0000070BD41F0FE4141F4780170BDF1
:1088D00070B54FF0FF0C4CF4E06C1CEA11541DBF56
:1088E0001CEA135594EA0C0F95EA0C0F00F0A7F858
:1088F000A4EB050481EA030E52EA03354FEA013185
:1089000000F088804FEA03334FF0805545EA131397
:1089100043EA12634FEA022245EA111545EA10655F
:108920004FEA00260EF000419D4208BF964244F1F6
:10893000FD0404F5407402D25B084FEA3202B61A15
:1089400065EB03055B084FEA32024FF480104FF4E9
:10895000002CB6EB020E75EB030E22BFB61A75465D
:1089600040EA0C005B084FEA3202B6EB020E75EBF0
:10897000030E22BFB61A754640EA5C005B084FEA58
:108980003202B6EB020E75EB030E22BFB61A754625
:1089900040EA9C005B084FEA3202B6EB020E75EB30
:1089A000030E22BFB61A754640EADC0055EA060EF1
:1089B00018D04FEA051545EA16754FEA06164FEA34
:1089C000C30343EA52734FEAC2025FEA1C1CC0D1E0
:1089D00011F4801F0BD141EA00014FF000004FF06D
:1089E000004CB6E711F4801F04BF01430020B4F12E
:1089F000FD0C88BFBCF5E06F3FF6AFAEB5EB030CE6
:108A000004BFB6EB020C5FEA500C50F1000041EBE2
:108A1000045170BD0EF0004E4EEA113114EB5C04AF
:108A2000C2BFD4EB0C0541EA045170BD41F4801182
:108A30004FF0000E013C90E645EA060E8DE60CEA8A
:108A4000135594EA0C0F08BF95EA0C0F3FF43BAFA7
:108A500094EA0C0F0AD150EA01347FF434AF95EA5E
:108A60000C0F7FF425AF104619462CE795EA0C0F42
:108A700006D152EA03353FF4FDAE1046194622E70F
:108A800050EA410618BF52EA43067FF4C5AE50EAE9
:108A900041047FF40DAF52EA43057FF4EBAE12E7D9
:108AA0004FEA4102B2F1E04324BFB3F5001CDCF110
:108AB000FE5C0DD901F0004C4FEAC0024CEA507048
:108AC000B2F1004F40EB830008BF20F00100704777
:108AD00011F0804F21D113F13872BCBF01F000407A
:108AE000704741F480114FEA5252C2F11802C2F1AC
:108AF000200C10FA0CF320FA02F018BF40F001002D
:108B00004FEAC1234FEAD32303FA0CFC40EA0C00DE
:108B100023FA02F34FEA4303CCE77FEA625307D11B
:108B200050EA01331EBF4FF0FE4040F44000704752
:108B300001F0004040F0FE4040F40000704700BFEC
:108B4000094B70B51C68256C06463DB91A20FCF728
:108B50008FFD1A222064294600F004FA216C304669
:108B6000BDE8704000F002B808E1032010B50C46E3
:108B700041690369826986B001F26C7104910168F0
:108B800003914168029181680191C1680091074990
:108B900003EB43030B44064902EB42020A4420461E
:108BA0000449FCF77DFD204606B010BDA6AD0D00C2
:108BB00091AD0D00CAAD0D0010B5054C13462CB19A
:108BC0000A4601460220AFF3008010BD204610BDCA
:108BD0000000000038B5074B1C68E36B05461BB965
:108BE0002420FCF745FDE063E16B2846BDE83840F2
:108BF00000F002B808E103200268474BF0B592FB91
:108C0000F3F403FB1422002ABCBF02F5A83202F5DC
:108C1000C0724FF4616004F52F2492FBF0F300FB67
:108C200013224FF03C00ACBF04F66C2404F66B2416
:108C30008B6092FBF0F300FB13224B600A6007236A
:108C4000E21C92FBF3F3C3EBC303D31A8B61334BE8
:108C5000334D94FBF5F503FB054448F6AC62B4FBD9
:108C6000F2F2224440F2B457B4FBF7F3D21A2D4883
:108C7000B4FBF0F048F69466131AB3FBF6F63444EE
:108C800040F26D12B3FBF2F0B3FBF7F3E31A02FB11
:108C90001033992403EB83020232B2FBF4F20A2A66
:108CA00004FB02F404F102064FF00504B6FBF4F4F1
:108CB00034BF02266FF0090616444FF4C87202FB57
:108CC00005055F1C012E98BF0135B3F5997FA7EB11
:108CD000040702D3A3F5997214E0820705D1642436
:108CE000B0FBF4F204FB12024AB94FF4C872B0FBB5
:108CF000F2F402FB1400B0FA80F2520900E0012203
:108D00003B331A44A5F26C750023CA614D610E61B4
:108D1000CF600B620846F0BD805101004FC5FDFFDA
:108D2000B13A0200B03A020038B5074B1C68E36B59
:108D300005461BB92420FCF79BFCE063E16B284649
:108D4000BDE8384000F002B808E103202DE9F04109
:108D50000C46804601F0C2FC214607464046FFF71C
:108D60004BFF466906F26C76B307044605D16422D0
:108D700096FBF2F302FB13634BB94FF4C87596FBF5
:108D8000F5F305FB1365B5FA85F35B0900E00123F4
:108D90005F4A302505FB032501F0BCFA01F0BCFA5F
:108DA0005C4B1B68F3B17B689E4205D13968D8F8EB
:108DB0000030FA6941B90AE0304601F003FA0028B0
:108DC000F4D14FF0FF330DE0934208DB01E0934212
:108DD00007DABA6B9342ACBF0023012302E0002301
:108DE00000E001232362236A012B0CBFF96B396A6F
:108DF0004FF461633C2091FBF3F603FB16136168AB
:108E000093FBF0F200FB12302368891AA2686160BC
:108E10001B1A921B3B2B2360A26003DD01316160B2
:108E20003C3B04E0002B03DA013961603C332360F2
:108E300063683B2B03DD0132A2603C3B04E0002B66
:108E400003DA013AA2603C336360A368172B22DD8A
:108E5000E2690132E261A2690132062AC8BF00223A
:108E6000A261E268183B0132A3602369E26055F811
:108E700023108A4246DD01330C2B0CBF636923614A
:108E8000A2EB0102E26001BF0133002222616361B3
:108E900008BFE26136E0002B34DAE269013AE261B0
:108EA000A269013A48BF0622A261E2681833013A7A
:108EB000E260A36032BB2369013B01D423611DE062
:108EC0000B23236163695A1E12F0030F626103F2E0
:108ED0006B7305D1642193FBF1F201FB12324AB9A5
:108EE0004FF4C87193FBF1F201FB1233B3FA83F331
:108EF0005B0900E0012303F5B673E361236955F8CC
:108F00002330E36001F007FA2046BDE8F08100BF9E
:108F1000B0AF0D00E4E7032010B5431E0A449142B0
:108F200004D011F8014B03F8014FF8E710BD884257
:108F300010B501EB020301D8421E0BE09842FBD2B0
:108F40008118D21AD34204D013F8014D01F8014D13
:108F5000F8E710BD994204D011F8014B02F8014F17
:108F6000F8E710BD02440346934202D003F8011B08
:108F7000FAE77047F7B501683B29044611D93C224E
:108F8000684601F053FB019A63680099002A0B447C
:108F90006360BBBF3C3203F1FF3322602260B8BF85
:108FA000636061683B2911D93C22684601F03EFBB1
:108FB000019AA168009B002A0B44A360BBBF3C320E
:108FC00003F1FF3362606260B8BFA360A168172934
:108FD00011D91822684601F029FB019AE168009B2B
:108FE000002A0B44E360BBBF183203F1FF33A260D9
:108FF000A260B8BFE36021690B2911D90C22684631
:1090000001F014FB019A6169009B002A0B44636123
:10901000BBBF0C3203F1FF3322612261B8BF636131
:109020006369990712D1642193FBF1F201FB1232BB
:1090300072B903F26C734FF4C87193FBF1F201FB48
:109040001233002B14BF1C231D2302E01C2300E05D
:109050001D23E268002A06DD334F4FF0000E642521
:109060004FF4C87639E0304F0B2664204FF4C875B2
:10907000D4F80CE0BEF1000F53DC21690139216105
:10908000013118D163692661591E8A0761610FD1C8
:1090900091FBF0F200FB121161B903F26B7393FBC9
:1090A000F5F205FB1233002B14BF1C231D2302E035
:1090B0001C2300E01D232269012A14BF57F8222037
:1090C0001A467244E260D3E78B422ADA184601322C
:1090D000091A0C2AE160226108D02269E168012A9C
:1090E000F2D057F822008142F1DC1AE06369C4F83B
:1090F00010E05A1C910762610FD192FBF5F105FB5C
:10910000112262B903F26D7393FBF6F206FB123380
:10911000002B14BF1C231D23DFE71C23DDE71D23C9
:10912000DBE703B0F0BD00BF80AF0D002DE9F047D5
:10913000054601F0D3FA81462846FFF71BFF95E864
:109140000C003C2101FB0323AA68EC684FF4616822
:1091500008FB02312B69AB4A52F82320013C012B5A
:1091600014446B6911DD9E070FD1642093FBF0F26C
:1091700000FB123242B903F26C764FF4C87296FBD0
:10918000F2F002FB106202B9013403F51C521032F6
:1091900044F620608242EC611F4600F22E81462B8D
:1091A00022DD462240F26D1C64264FF4C87E9007F3
:1091B00010D192FBF6F006FB102070B902F26C7829
:1091C00098FBFEF00EFB1080002814BF60464FF4A1
:1091D000B77004E040F26D1001E04FF4B770013257
:1091E00093420444E3D144E043D0452240F26D1E53
:1091F00064264FF4C8779A421ADD900710D192FB8B
:10920000F6F006FB102070B902F26C7C9CFBF7F0C4
:1092100007FB10C0002814BF70464FF4B77004E07D
:1092200040F26D1001E04FF4B770241A013AE2E702
:10923000452BA8BF45239E071F4614D1642293FBEC
:10924000F2F302FB13738BB907F26C704FF4C8731F
:1092500090FBF3F203FB1203002B40F26D1308BFE7
:109260004FF4B77304E040F26D1301E04FF4B773AD
:10927000E41A654800FB041801F04CF801F04CF8C2
:10928000624B1E68002E00F0A4802B6A6869012BD7
:10929000A8BF01239A46D9F8043000F26C709842B6
:1092A0000DD1D9F83820D9F82030D9F83C00D9F8B8
:1092B0001C10D61AB045A1EB000105DA07E000F05A
:1092C00081FF0028EDD176E0121A904573DBD9F8C2
:1092D000002012B1884577DB01E0884507DAB04508
:1092E000ACBF00260126BAF1000F04DA64E0BAF13F
:1092F000000F63DB01268AEA060ABAF1010F5BD18F
:109300001B1A06B95B422A68D5F80CA01A442A60D9
:1093100028469844FFF72EFEEB68B3EB0A034BD0C8
:10932000012B03DC981CD8BF012301E04FF0FF3371
:10933000EA691C449B181DD57B1E990714D1642132
:1093400093FBF1F201FB12338BB907F26B774FF409
:10935000C87297FBF2F302FB1377002F40F26D13F4
:1093600018BF4FF4B67324E04FF4B67321E040F217
:109370006D131EE0BA0714D1642197FBF1F201FBD3
:1093800012728AB907F26C774FF4C87197FBF1F249
:1093900001FB1277002F40F26D1208BF4FF4B77235
:1093A00004E040F26D1201E04FF4B7729A42D8BF68
:1093B0009B1AEB6100E05646012E0AD1D9F83C0019
:1093C000012608EB000708E0BAF1000F4FF0000695
:1093D00091DAD9F8200008EB000700F09CFF043474
:1093E000072394FBF3F3C3EBC303E41A48BF07342A
:1093F0002E62AC613846BDE8F0874FF0FF30BDE823
:10940000F08700BF50AF0D0080510100E4E703205A
:1094100038B5124B1C68A36B0546D3B91820FCF76E
:1094200027F943F20E33A06303804AF6CD3343801D
:1094300041F2342383804EF26D63C3804DF6EC63BA
:109440000381052343810B23838101220023C0E98B
:109450000423A36B00221D615A6138BD08E103207B
:10946000C9B2034610F8012B1AB19142F9D118463E
:10947000704700290CBF18460020704710B50446FD
:10948000FFF7EEFF18B9204600F044FD204410BD60
:1094900010F8012B11F8013B012A28BF9A42F7D09E
:1094A000D01A7047034611F8012B03F8012B002A4C
:1094B000F9D17047024B0146186800F003B800BFAD
:1094C00008E1032070B5064608460C4600F022FD70
:1094D000451C29463046FCF713F9064618B12A46C2
:1094E0002146FFF719FD304670BD41698B0710B565
:1094F0000CD1002940F26C73A8BF6FF063030B44DA
:10950000642493FBF4F204FB123383B9002940F284
:109510006C73A8BF6FF063034FF4C8720B4493FBE6
:10952000F2F102FB1133B3FA83F2520900E0012297
:109530008369C1695B0003EB01131344212B0EDC2B
:10954000202B2FDA0D2B02DC0A2B05DB2AE0102B57
:1095500026DB112B26DD1C3B012B23D920E041F219
:10956000C66293420EDC41F2C262934216DA41F2C5
:10957000A262934212D013DBA3F5B553123B022B28
:109580000CD90DE041F2D562934207D041F2D76287
:10959000934203D041F2D362934201D1012010BD26
:1095A000002010BD4FF0FF3010BD00002DE9F04F3E
:1095B00093B00E461D460746914600F0F3FD00238A
:1095C00006931C46731E0390029399F80030002BFB
:1095D00000F09284252B08D0029A944280F0908467
:1095E0003B5509F101090134EFE799F801A0BAF1FF
:1095F000300F07D0BAF12B0F04D009F101094FF059
:10960000000A01E009F1020999F80030313B082B0A
:1096100008D848460A220AA900F0BAFDDDF82890C9
:10962000804601E04FF0000899F80030452B01D04A
:109630004F2B01D109F1010999F80000A0F1250390
:10964000552B00F25D84DFE813F04A045B045B04F1
:109650005B045B045B045B045B045B045B045B0412
:109660005B045B045B045B045B045B045B045B0402
:109670005B045B045B045B045B045B045B045B04F2
:109680005B046F00A100D4001A015B043F01A0013C
:1096900026022D025B045B045B0460025B045B0436
:1096A00068025B0497021D0325033B034303860303
:1096B000C600A0031F045B045B045B045B045B0443
:1096C0005B0456008900BA000C010C015B047101B7
:1096D00089005B043D0226022D025D0262025B04EA
:1096E00068025B04BE009C021F032E035B047F0321
:1096F000C2009203E703AB69039A183352F8238040
:10970000404600F007FC08F1FF383B192044844232
:1097100000F0EB83029A944280F0F28318F8012F54
:1097200003F8012B0134F2E7AB69039A02EB8303E0
:10973000D3F87C80404600F0EDFB08F1FF383B1980
:109740002044844200F0D183029A944280F0D8836E
:1097500018F8012F03F8012B0134F2E72B69039A63
:1097600052F82380404600F0D5FB08F1FF383B1942
:109770002044844200F0B983029A944280F0C0836E
:1097800018F8012F03F8012B0134F2E72B69039A33
:109790000C3352F82380404600F0BCFB08F1FF3840
:1097A0003B192044844200F0A083029A944280F046
:1097B000A78318F8012F03F8012B0134F2E7039B6C
:1097C000D3F8A0800AE0039BD3F8E48006E0039B73
:1097D000D3F89C8002E0039BD3F89880404600F0C9
:1097E00099FB98F80030002B00F07F832B4642460F
:1097F00093E0B649D5F814B08B45ACBF00210121E8
:10980000BBF1000F04DB64209BFBF0F0133008E099
:109810000BF26C70079100F005FF0799642390FB31
:10982000F3F0BAF1000F08D0632809DDA84BA94A6C
:10983000BAF12B0F18BF134603E0A64BA64A01E06E
:10984000A44BA64A0190B8F1010F98BF4FF002084F
:10985000C1EB080100919D48A1498345B8BF0B4663
:109860001EE2A04AA049EB68642808BF0A46311BE3
:109870003819FBF72DFF002880F2028340E3686966
:109880002B69002803F1010B07EB0408C4EB060A5F
:10989000EB6805DB642290FBF2F102FB11000AE0A9
:1098A00000F26C70079300F0BDFE6422079B90FBF2
:1098B000F2F101FB12008D4A0190009351465B4684
:1098C0004046FBF705FFD6E725238DF82830BAF18F
:1098D000000F07D0B8F1050F8DF829A098BF4FF001
:1098E000060804E02B238DF829304FF00A08B8F160
:1098F000060302D10DF12A000AE07D4A1E210DF176
:109900002A00FBF7E5FE0028F4DD0DF12A031844D8
:109910007849FFF7C7FD2B460AAA311B3819FFF714
:1099200045FE002840F3EC820444DEE22846FFF7BF
:10993000DCFD80466869002805DB642290FBF2F1BB
:1099400002FB110008E000F26C7000F06BFE642274
:1099500090FBF2F303FB1200B8F1000F06DA6A691C
:10996000654B9A42B8BF4FF0010806E005D06A691E
:10997000564B9A42B8BF4FF0FF386423404490FBE7
:10998000F3F203FB12001844F9E1504B69690891A6
:109990009942ACBF0023012328460793FFF7A5FD9A
:1099A00008990029834604DB642391FBF3F3133306
:1099B00008E001F26C70089100F034FE089964230D
:1099C00090FBF3F36869002806DB4FF0640E90FB10
:1099D000FEFC0EFB1C000DE000F26C700991089378
:1099E00000F020FE4FF0640E0999089B90FBFEFCEE
:1099F0000CFB1E00BBF1000F08DA69693E4A914278
:109A00000ADA4FF0010BCDF81CB005E004D02F4A64
:109A10009142B8BF4FF0FF3B0BEB0002501C02D14C
:109A2000013B632203E0642A04BF01330022642067
:109A300000FB0323079A42B12D228DF82820B8F1AC
:109A4000000F13D008F1FF3810E0BAF12B0F10D13E
:109A500042F20F7293420CD98DF828A0B8F1000F92
:109A6000F0D112AA252102F81F1D0AE00DF12902EA
:109A700000E00AAA25211170BAF1000F01D1501C93
:109A800002E03021901C51701C490793FFF70AFD3A
:109A9000079B0093ADE1144A1249AB686B2808BFDD
:109AA0000A46E4E6A9680C2331B199420EBF0B4681
:109AB00091FBF3F203FB12130A4A0B49492808BF32
:109AC0000A46D4E6EB690E4A0133D0E694F8FFFF6C
:109AD0001FB00D0025AC0D0010B00D0017B00D002B
